{
  "_format": "hh-sol-artifact-1",
  "contractName": "DAOHub",
  "sourceName": "contracts/core/DAOHub.sol",
  "abi": [
    {
      "anonymous": false,
      "inputs": [
        {
          "indexed": true,
          "internalType": "address",
          "name": "daoProxy",
          "type": "address"
        },
        {
          "indexed": true,
          "internalType": "address",
          "name": "submitter",
          "type": "address"
        }
      ],
      "name": "DAOProxyRegistered",
      "type": "event"
    },
    {
      "anonymous": false,
      "inputs": [
        {
          "indexed": true,
          "internalType": "bytes32",
          "name": "role",
          "type": "bytes32"
        },
        {
          "indexed": true,
          "internalType": "bytes32",
          "name": "previousAdminRole",
          "type": "bytes32"
        },
        {
          "indexed": true,
          "internalType": "bytes32",
          "name": "newAdminRole",
          "type": "bytes32"
        }
      ],
      "name": "RoleAdminChanged",
      "type": "event"
    },
    {
      "anonymous": false,
      "inputs": [
        {
          "indexed": true,
          "internalType": "bytes32",
          "name": "role",
          "type": "bytes32"
        },
        {
          "indexed": true,
          "internalType": "address",
          "name": "account",
          "type": "address"
        },
        {
          "indexed": true,
          "internalType": "address",
          "name": "sender",
          "type": "address"
        }
      ],
      "name": "RoleGranted",
      "type": "event"
    },
    {
      "anonymous": false,
      "inputs": [
        {
          "indexed": true,
          "internalType": "bytes32",
          "name": "role",
          "type": "bytes32"
        },
        {
          "indexed": true,
          "internalType": "address",
          "name": "account",
          "type": "address"
        },
        {
          "indexed": true,
          "internalType": "address",
          "name": "sender",
          "type": "address"
        }
      ],
      "name": "RoleRevoked",
      "type": "event"
    },
    {
      "inputs": [],
      "name": "DEFAULT_ADMIN_ROLE",
      "outputs": [
        {
          "internalType": "bytes32",
          "name": "",
          "type": "bytes32"
        }
      ],
      "stateMutability": "view",
      "type": "function"
    },
    {
      "inputs": [],
      "name": "getDAOProxies",
      "outputs": [
        {
          "internalType": "address[]",
          "name": "",
          "type": "address[]"
        }
      ],
      "stateMutability": "view",
      "type": "function"
    },
    {
      "inputs": [
        {
          "internalType": "bytes32",
          "name": "role",
          "type": "bytes32"
        }
      ],
      "name": "getRoleAdmin",
      "outputs": [
        {
          "internalType": "bytes32",
          "name": "",
          "type": "bytes32"
        }
      ],
      "stateMutability": "view",
      "type": "function"
    },
    {
      "inputs": [
        {
          "internalType": "bytes32",
          "name": "role",
          "type": "bytes32"
        },
        {
          "internalType": "address",
          "name": "account",
          "type": "address"
        }
      ],
      "name": "grantRole",
      "outputs": [],
      "stateMutability": "nonpayable",
      "type": "function"
    },
    {
      "inputs": [
        {
          "internalType": "bytes32",
          "name": "role",
          "type": "bytes32"
        },
        {
          "internalType": "address",
          "name": "account",
          "type": "address"
        }
      ],
      "name": "hasRole",
      "outputs": [
        {
          "internalType": "bool",
          "name": "",
          "type": "bool"
        }
      ],
      "stateMutability": "view",
      "type": "function"
    },
    {
      "inputs": [
        {
          "internalType": "address",
          "name": "daoProxy",
          "type": "address"
        }
      ],
      "name": "registerDAOProxy",
      "outputs": [],
      "stateMutability": "nonpayable",
      "type": "function"
    },
    {
      "inputs": [
        {
          "internalType": "bytes32",
          "name": "role",
          "type": "bytes32"
        },
        {
          "internalType": "address",
          "name": "account",
          "type": "address"
        }
      ],
      "name": "renounceRole",
      "outputs": [],
      "stateMutability": "nonpayable",
      "type": "function"
    },
    {
      "inputs": [
        {
          "internalType": "bytes32",
          "name": "role",
          "type": "bytes32"
        },
        {
          "internalType": "address",
          "name": "account",
          "type": "address"
        }
      ],
      "name": "revokeRole",
      "outputs": [],
      "stateMutability": "nonpayable",
      "type": "function"
    },
    {
      "inputs": [
        {
          "internalType": "bytes4",
          "name": "interfaceId",
          "type": "bytes4"
        }
      ],
      "name": "supportsInterface",
      "outputs": [
        {
          "internalType": "bool",
          "name": "",
          "type": "bool"
        }
      ],
      "stateMutability": "view",
      "type": "function"
    }
  ],
  "bytecode": "0x608060405234801561001057600080fd5b50611172806100206000396000f3fe608060405234801561001057600080fd5b50600436106100935760003560e01c80632f2ff15d116100665780632f2ff15d1461013257806336568abe1461014e57806391d148541461016a578063a217fddf1461019a578063d547741f146101b857610093565b806301ffc9a71461009857806319a40ef4146100c8578063248a9ca3146100e65780632ba369ab14610116575b600080fd5b6100b260048036038101906100ad9190610a6a565b6101d4565b6040516100bf9190610ab2565b60405180910390f35b6100d061024e565b6040516100dd9190610bbd565b60405180910390f35b61010060048036038101906100fb9190610c15565b6102dc565b60405161010d9190610c51565b60405180910390f35b610130600480360381019061012b9190610c98565b6102fb565b005b61014c60048036038101906101479190610cc5565b6103bb565b005b61016860048036038101906101639190610cc5565b6103e4565b005b610184600480360381019061017f9190610cc5565b610467565b6040516101919190610ab2565b60405180910390f35b6101a26104d1565b6040516101af9190610c51565b60405180910390f35b6101d260048036038101906101cd9190610cc5565b6104d8565b005b60007f7965db0b000000000000000000000000000000000000000000000000000000007bffffffffffffffffffffffffffffffffffffffffffffffffffffffff1916827bffffffffffffffffffffffffffffffffffffffffffffffffffffffff19161480610247575061024682610501565b5b9050919050565b606060018054806020026020016040519081016040528092919081815260200182805480156102d257602002820191906000526020600020905b8160009054906101000a900473ffffffffffffffffffffffffffffffffffffffff1673ffffffffffffffffffffffffffffffffffffffff1681526020019060010190808311610288575b5050505050905090565b6000806000838152602001908152602001600020600101549050919050565b6001819080600181540180825580915050600190039060005260206000200160009091909190916101000a81548173ffffffffffffffffffffffffffffffffffffffff021916908373ffffffffffffffffffffffffffffffffffffffff1602179055503373ffffffffffffffffffffffffffffffffffffffff168173ffffffffffffffffffffffffffffffffffffffff167f8816fb59a32daa79c3b0635cc944e4017ccc9cc80999988dcfb5cb267665df5560405160405180910390a350565b6103c4826102dc565b6103d5816103d061056b565b610573565b6103df8383610610565b505050565b6103ec61056b565b73ffffffffffffffffffffffffffffffffffffffff168173ffffffffffffffffffffffffffffffffffffffff1614610459576040517f08c379a000000000000000000000000000000000000000000000000000000000815260040161045090610d88565b60405180910390fd5b61046382826106f0565b5050565b600080600084815260200190815260200160002060000160008373ffffffffffffffffffffffffffffffffffffffff1673ffffffffffffffffffffffffffffffffffffffff16815260200190815260200160002060009054906101000a900460ff16905092915050565b6000801b81565b6104e1826102dc565b6104f2816104ed61056b565b610573565b6104fc83836106f0565b505050565b60007f01ffc9a7000000000000000000000000000000000000000000000000000000007bffffffffffffffffffffffffffffffffffffffffffffffffffffffff1916827bffffffffffffffffffffffffffffffffffffffffffffffffffffffff1916149050919050565b600033905090565b61057d8282610467565b61060c576105a28173ffffffffffffffffffffffffffffffffffffffff1660146107d1565b6105b08360001c60206107d1565b6040516020016105c1929190610eba565b6040516020818303038152906040526040517f08c379a00000000000000000000000000000000000000000000000000000000081526004016106039190610f3e565b60405180910390fd5b5050565b61061a8282610467565b6106ec57600160008084815260200190815260200160002060000160008373ffffffffffffffffffffffffffffffffffffffff1673ffffffffffffffffffffffffffffffffffffffff16815260200190815260200160002060006101000a81548160ff02191690831515021790555061069161056b565b73ffffffffffffffffffffffffffffffffffffffff168173ffffffffffffffffffffffffffffffffffffffff16837f2f8788117e7eff1d82e926ec794901d17c78024a50270940304540a733656f0d60405160405180910390a45b5050565b6106fa8282610467565b156107cd57600080600084815260200190815260200160002060000160008373ffffffffffffffffffffffffffffffffffffffff1673ffffffffffffffffffffffffffffffffffffffff16815260200190815260200160002060006101000a81548160ff02191690831515021790555061077261056b565b73ffffffffffffffffffffffffffffffffffffffff168173ffffffffffffffffffffffffffffffffffffffff16837ff6391f5c32d9c69d2a47ea670b442974b53935d1edc7fd64eb21e047a839171b60405160405180910390a45b5050565b6060600060028360026107e49190610f99565b6107ee9190610ff3565b67ffffffffffffffff81111561080757610806611049565b5b6040519080825280601f01601f1916602001820160405280156108395781602001600182028036833780820191505090505b5090507f30000000000000000000000000000000000000000000000000000000000000008160008151811061087157610870611078565b5b60200101907effffffffffffffffffffffffffffffffffffffffffffffffffffffffffffff1916908160001a9053507f7800000000000000000000000000000000000000000000000000000000000000816001815181106108d5576108d4611078565b5b60200101907effffffffffffffffffffffffffffffffffffffffffffffffffffffffffffff1916908160001a905350600060018460026109159190610f99565b61091f9190610ff3565b90505b60018111156109bf577f3031323334353637383961626364656600000000000000000000000000000000600f86166010811061096157610960611078565b5b1a60f81b82828151811061097857610977611078565b5b60200101907effffffffffffffffffffffffffffffffffffffffffffffffffffffffffffff1916908160001a905350600485901c9450806109b8906110a7565b9050610922565b5060008414610a03576040517f08c379a00000000000000000000000000000000000000000000000000000000081526004016109fa9061111c565b60405180910390fd5b8091505092915050565b600080fd5b60007fffffffff0000000000000000000000000000000000000000000000000000000082169050919050565b610a4781610a12565b8114610a5257600080fd5b50565b600081359050610a6481610a3e565b92915050565b600060208284031215610a8057610a7f610a0d565b5b6000610a8e84828501610a55565b91505092915050565b60008115159050919050565b610aac81610a97565b82525050565b6000602082019050610ac76000830184610aa3565b92915050565b600081519050919050565b600082825260208201905092915050565b6000819050602082019050919050565b600073ffffffffffffffffffffffffffffffffffffffff82169050919050565b6000610b2482610af9565b9050919050565b610b3481610b19565b82525050565b6000610b468383610b2b565b60208301905092915050565b6000602082019050919050565b6000610b6a82610acd565b610b748185610ad8565b9350610b7f83610ae9565b8060005b83811015610bb0578151610b978882610b3a565b9750610ba283610b52565b925050600181019050610b83565b5085935050505092915050565b60006020820190508181036000830152610bd78184610b5f565b905092915050565b6000819050919050565b610bf281610bdf565b8114610bfd57600080fd5b50565b600081359050610c0f81610be9565b92915050565b600060208284031215610c2b57610c2a610a0d565b5b6000610c3984828501610c00565b91505092915050565b610c4b81610bdf565b82525050565b6000602082019050610c666000830184610c42565b92915050565b610c7581610b19565b8114610c8057600080fd5b50565b600081359050610c9281610c6c565b92915050565b600060208284031215610cae57610cad610a0d565b5b6000610cbc84828501610c83565b91505092915050565b60008060408385031215610cdc57610cdb610a0d565b5b6000610cea85828601610c00565b9250506020610cfb85828601610c83565b9150509250929050565b600082825260208201905092915050565b7f416363657373436f6e74726f6c3a2063616e206f6e6c792072656e6f756e636560008201527f20726f6c657320666f722073656c660000000000000000000000000000000000602082015250565b6000610d72602f83610d05565b9150610d7d82610d16565b604082019050919050565b60006020820190508181036000830152610da181610d65565b9050919050565b600081905092915050565b7f416363657373436f6e74726f6c3a206163636f756e7420000000000000000000600082015250565b6000610de9601783610da8565b9150610df482610db3565b601782019050919050565b600081519050919050565b60005b83811015610e28578082015181840152602081019050610e0d565b83811115610e37576000848401525b50505050565b6000610e4882610dff565b610e528185610da8565b9350610e62818560208601610e0a565b80840191505092915050565b7f206973206d697373696e6720726f6c6520000000000000000000000000000000600082015250565b6000610ea4601183610da8565b9150610eaf82610e6e565b601182019050919050565b6000610ec582610ddc565b9150610ed18285610e3d565b9150610edc82610e97565b9150610ee88284610e3d565b91508190509392505050565b6000601f19601f8301169050919050565b6000610f1082610dff565b610f1a8185610d05565b9350610f2a818560208601610e0a565b610f3381610ef4565b840191505092915050565b60006020820190508181036000830152610f588184610f05565b905092915050565b6000819050919050565b7f4e487b7100000000000000000000000000000000000000000000000000000000600052601160045260246000fd5b6000610fa482610f60565b9150610faf83610f60565b9250817fffffffffffffffffffffffffffffffffffffffffffffffffffffffffffffffff0483118215151615610fe857610fe7610f6a565b5b828202905092915050565b6000610ffe82610f60565b915061100983610f60565b9250827fffffffffffffffffffffffffffffffffffffffffffffffffffffffffffffffff0382111561103e5761103d610f6a565b5b828201905092915050565b7f4e487b7100000000000000000000000000000000000000000000000000000000600052604160045260246000fd5b7f4e487b7100000000000000000000000000000000000000000000000000000000600052603260045260246000fd5b60006110b282610f60565b9150600082036110c5576110c4610f6a565b5b600182039050919050565b7f537472696e67733a20686578206c656e67746820696e73756666696369656e74600082015250565b6000611106602083610d05565b9150611111826110d0565b602082019050919050565b60006020820190508181036000830152611135816110f9565b905091905056fea264697066735822122004190726dc1fc93290b6d3f2505d64279ea96b943993186cb6367be7308e7b4264736f6c634300080d0033",
  "linkReferences": {},
  "deployedLinkReferences": {}
}