{
  "_format": "hh-sol-artifact-1",
  "contractName": "DAOProxyFactory",
  "sourceName": "contracts/factories/DAOProxyFactory.sol",
  "abi": [
    {
      "inputs": [
        {
          "internalType": "address",
          "name": "hub",
          "type": "address"
        }
      ],
      "stateMutability": "nonpayable",
      "type": "constructor"
    },
    {
      "anonymous": false,
      "inputs": [
        {
          "indexed": true,
          "internalType": "bytes32",
          "name": "role",
          "type": "bytes32"
        },
        {
          "indexed": true,
          "internalType": "bytes32",
          "name": "previousAdminRole",
          "type": "bytes32"
        },
        {
          "indexed": true,
          "internalType": "bytes32",
          "name": "newAdminRole",
          "type": "bytes32"
        }
      ],
      "name": "RoleAdminChanged",
      "type": "event"
    },
    {
      "anonymous": false,
      "inputs": [
        {
          "indexed": true,
          "internalType": "bytes32",
          "name": "role",
          "type": "bytes32"
        },
        {
          "indexed": true,
          "internalType": "address",
          "name": "account",
          "type": "address"
        },
        {
          "indexed": true,
          "internalType": "address",
          "name": "sender",
          "type": "address"
        }
      ],
      "name": "RoleGranted",
      "type": "event"
    },
    {
      "anonymous": false,
      "inputs": [
        {
          "indexed": true,
          "internalType": "bytes32",
          "name": "role",
          "type": "bytes32"
        },
        {
          "indexed": true,
          "internalType": "address",
          "name": "account",
          "type": "address"
        },
        {
          "indexed": true,
          "internalType": "address",
          "name": "sender",
          "type": "address"
        }
      ],
      "name": "RoleRevoked",
      "type": "event"
    },
    {
      "inputs": [],
      "name": "DEFAULT_ADMIN_ROLE",
      "outputs": [
        {
          "internalType": "bytes32",
          "name": "",
          "type": "bytes32"
        }
      ],
      "stateMutability": "view",
      "type": "function"
    },
    {
      "inputs": [
        {
          "internalType": "bytes32",
          "name": "role",
          "type": "bytes32"
        }
      ],
      "name": "getRoleAdmin",
      "outputs": [
        {
          "internalType": "bytes32",
          "name": "",
          "type": "bytes32"
        }
      ],
      "stateMutability": "view",
      "type": "function"
    },
    {
      "inputs": [
        {
          "internalType": "bytes32",
          "name": "role",
          "type": "bytes32"
        },
        {
          "internalType": "address",
          "name": "account",
          "type": "address"
        }
      ],
      "name": "grantRole",
      "outputs": [],
      "stateMutability": "nonpayable",
      "type": "function"
    },
    {
      "inputs": [
        {
          "internalType": "bytes32",
          "name": "role",
          "type": "bytes32"
        },
        {
          "internalType": "address",
          "name": "account",
          "type": "address"
        }
      ],
      "name": "hasRole",
      "outputs": [
        {
          "internalType": "bool",
          "name": "",
          "type": "bool"
        }
      ],
      "stateMutability": "view",
      "type": "function"
    },
    {
      "inputs": [
        {
          "internalType": "uint8",
          "name": "chainId",
          "type": "uint8"
        },
        {
          "internalType": "address",
          "name": "contractAddress",
          "type": "address"
        },
        {
          "internalType": "string",
          "name": "name",
          "type": "string"
        },
        {
          "internalType": "string",
          "name": "description",
          "type": "string"
        },
        {
          "internalType": "string",
          "name": "logoURI",
          "type": "string"
        },
        {
          "internalType": "enum DAOProxyFactory.MembershipModuleType",
          "name": "membershipModuleType",
          "type": "uint8"
        },
        {
          "internalType": "address",
          "name": "tokenAddress",
          "type": "address"
        },
        {
          "internalType": "address",
          "name": "treasury",
          "type": "address"
        }
      ],
      "name": "newDAOProxy",
      "outputs": [
        {
          "internalType": "address",
          "name": "",
          "type": "address"
        }
      ],
      "stateMutability": "nonpayable",
      "type": "function"
    },
    {
      "inputs": [
        {
          "internalType": "bytes32",
          "name": "role",
          "type": "bytes32"
        },
        {
          "internalType": "address",
          "name": "account",
          "type": "address"
        }
      ],
      "name": "renounceRole",
      "outputs": [],
      "stateMutability": "nonpayable",
      "type": "function"
    },
    {
      "inputs": [
        {
          "internalType": "bytes32",
          "name": "role",
          "type": "bytes32"
        },
        {
          "internalType": "address",
          "name": "account",
          "type": "address"
        }
      ],
      "name": "revokeRole",
      "outputs": [],
      "stateMutability": "nonpayable",
      "type": "function"
    },
    {
      "inputs": [
        {
          "internalType": "bytes4",
          "name": "interfaceId",
          "type": "bytes4"
        }
      ],
      "name": "supportsInterface",
      "outputs": [
        {
          "internalType": "bool",
          "name": "",
          "type": "bool"
        }
      ],
      "stateMutability": "view",
      "type": "function"
    }
  ],
  "bytecode": "0x60806040523480156200001157600080fd5b50604051620052e6380380620052e68339818101604052810190620000379190620000e9565b80600160006101000a81548173ffffffffffffffffffffffffffffffffffffffff021916908373ffffffffffffffffffffffffffffffffffffffff160217905550506200011b565b600080fd5b600073ffffffffffffffffffffffffffffffffffffffff82169050919050565b6000620000b18262000084565b9050919050565b620000c381620000a4565b8114620000cf57600080fd5b50565b600081519050620000e381620000b8565b92915050565b6000602082840312156200010257620001016200007f565b5b60006200011284828501620000d2565b91505092915050565b6151bb806200012b6000396000f3fe60806040523480156200001157600080fd5b5060043610620000945760003560e01c806391d14854116200006357806391d1485414620001455780639a8b447a146200017b578063a217fddf14620001b1578063d547741f14620001d35762000094565b806301ffc9a71462000099578063248a9ca314620000cf5780632f2ff15d146200010557806336568abe1462000125575b600080fd5b620000b76004803603810190620000b1919062000bf8565b620001f3565b604051620000c6919062000c47565b60405180910390f35b620000ed6004803603810190620000e7919062000c9f565b62000270565b604051620000fc919062000ce2565b60405180910390f35b6200012360048036038101906200011d919062000d64565b6200028f565b005b6200014360048036038101906200013d919062000d64565b620002c0565b005b6200016360048036038101906200015d919062000d64565b6200034a565b60405162000172919062000c47565b60405180910390f35b62000199600480360381019062000193919062000e7f565b620003b4565b604051620001a8919062000fc4565b60405180910390f35b620001bb620005ef565b604051620001ca919062000ce2565b60405180910390f35b620001f16004803603810190620001eb919062000d64565b620005f6565b005b60007f7965db0b000000000000000000000000000000000000000000000000000000007bffffffffffffffffffffffffffffffffffffffffffffffffffffffff1916827bffffffffffffffffffffffffffffffffffffffffffffffffffffffff19161480620002695750620002688262000627565b5b9050919050565b6000806000838152602001908152602001600020600101549050919050565b6200029a8262000270565b620002af81620002a962000691565b62000699565b620002bb838362000741565b505050565b620002ca62000691565b73ffffffffffffffffffffffffffffffffffffffff168173ffffffffffffffffffffffffffffffffffffffff16146200033a576040517f08c379a0000000000000000000000000000000000000000000000000000000008152600401620003319062001068565b60405180910390fd5b62000346828262000826565b5050565b600080600084815260200190815260200160002060000160008373ffffffffffffffffffffffffffffffffffffffff1673ffffffffffffffffffffffffffffffffffffffff16815260200190815260200160002060009054906101000a900460ff16905092915050565b600080604051620003c59062000b67565b604051809103906000f080158015620003e2573d6000803e3d6000fd5b5090506000806001811115620003fd57620003fc6200108a565b5b8660018111156200041357620004126200108a565b5b036200045a5784604051620004289062000b75565b62000434919062000fc4565b604051809103906000f08015801562000451573d6000803e3d6000fd5b509050620004c9565b60018081111562000470576200046f6200108a565b5b8660018111156200048657620004856200108a565b5b03620004c857846040516200049b9062000b83565b620004a7919062000fc4565b604051809103906000f080158015620004c4573d6000803e3d6000fd5b5090505b5b8173ffffffffffffffffffffffffffffffffffffffff1663df6ac5448f8f8f8f8f8f8f8f8a8e6040518b63ffffffff1660e01b8152600401620005169a999897969594939291906200111d565b600060405180830381600087803b1580156200053157600080fd5b505af115801562000546573d6000803e3d6000fd5b50505050600160009054906101000a900473ffffffffffffffffffffffffffffffffffffffff1673ffffffffffffffffffffffffffffffffffffffff16632ba369ab836040518263ffffffff1660e01b8152600401620005a7919062000fc4565b600060405180830381600087803b158015620005c257600080fd5b505af1158015620005d7573d6000803e3d6000fd5b5050505081925050509b9a5050505050505050505050565b6000801b81565b620006018262000270565b62000616816200061062000691565b62000699565b62000622838362000826565b505050565b60007f01ffc9a7000000000000000000000000000000000000000000000000000000007bffffffffffffffffffffffffffffffffffffffffffffffffffffffff1916827bffffffffffffffffffffffffffffffffffffffffffffffffffffffff1916149050919050565b600033905090565b620006a582826200034a565b6200073d57620006cd8173ffffffffffffffffffffffffffffffffffffffff1660146200090c565b620006dd8360001c60206200090c565b604051602001620006f0929190620012d8565b6040516020818303038152906040526040517f08c379a00000000000000000000000000000000000000000000000000000000081526004016200073491906200135b565b60405180910390fd5b5050565b6200074d82826200034a565b6200082257600160008084815260200190815260200160002060000160008373ffffffffffffffffffffffffffffffffffffffff1673ffffffffffffffffffffffffffffffffffffffff16815260200190815260200160002060006101000a81548160ff021916908315150217905550620007c762000691565b73ffffffffffffffffffffffffffffffffffffffff168173ffffffffffffffffffffffffffffffffffffffff16837f2f8788117e7eff1d82e926ec794901d17c78024a50270940304540a733656f0d60405160405180910390a45b5050565b6200083282826200034a565b156200090857600080600084815260200190815260200160002060000160008373ffffffffffffffffffffffffffffffffffffffff1673ffffffffffffffffffffffffffffffffffffffff16815260200190815260200160002060006101000a81548160ff021916908315150217905550620008ad62000691565b73ffffffffffffffffffffffffffffffffffffffff168173ffffffffffffffffffffffffffffffffffffffff16837ff6391f5c32d9c69d2a47ea670b442974b53935d1edc7fd64eb21e047a839171b60405160405180910390a45b5050565b606060006002836002620009219190620013b8565b6200092d919062001419565b67ffffffffffffffff81111562000949576200094862001476565b5b6040519080825280601f01601f1916602001820160405280156200097c5781602001600182028036833780820191505090505b5090507f300000000000000000000000000000000000000000000000000000000000000081600081518110620009b757620009b6620014a5565b5b60200101907effffffffffffffffffffffffffffffffffffffffffffffffffffffffffffff1916908160001a9053507f78000000000000000000000000000000000000000000000000000000000000008160018151811062000a1e5762000a1d620014a5565b5b60200101907effffffffffffffffffffffffffffffffffffffffffffffffffffffffffffff1916908160001a9053506000600184600262000a609190620013b8565b62000a6c919062001419565b90505b600181111562000b16577f3031323334353637383961626364656600000000000000000000000000000000600f86166010811062000ab25762000ab1620014a5565b5b1a60f81b82828151811062000acc5762000acb620014a5565b5b60200101907effffffffffffffffffffffffffffffffffffffffffffffffffffffffffffff1916908160001a905350600485901c94508062000b0e90620014d4565b905062000a6f565b506000841462000b5d576040517f08c379a000000000000000000000000000000000000000000000000000000000815260040162000b549062001552565b60405180910390fd5b8091505092915050565b611863806200157583390190565b6111d78062002dd883390190565b6111d78062003faf83390190565b600080fd5b600080fd5b60007fffffffff0000000000000000000000000000000000000000000000000000000082169050919050565b62000bd28162000b9b565b811462000bde57600080fd5b50565b60008135905062000bf28162000bc7565b92915050565b60006020828403121562000c115762000c1062000b91565b5b600062000c218482850162000be1565b91505092915050565b60008115159050919050565b62000c418162000c2a565b82525050565b600060208201905062000c5e600083018462000c36565b92915050565b6000819050919050565b62000c798162000c64565b811462000c8557600080fd5b50565b60008135905062000c998162000c6e565b92915050565b60006020828403121562000cb85762000cb762000b91565b5b600062000cc88482850162000c88565b91505092915050565b62000cdc8162000c64565b82525050565b600060208201905062000cf9600083018462000cd1565b92915050565b600073ffffffffffffffffffffffffffffffffffffffff82169050919050565b600062000d2c8262000cff565b9050919050565b62000d3e8162000d1f565b811462000d4a57600080fd5b50565b60008135905062000d5e8162000d33565b92915050565b6000806040838503121562000d7e5762000d7d62000b91565b5b600062000d8e8582860162000c88565b925050602062000da18582860162000d4d565b9150509250929050565b600060ff82169050919050565b62000dc38162000dab565b811462000dcf57600080fd5b50565b60008135905062000de38162000db8565b92915050565b600080fd5b600080fd5b600080fd5b60008083601f84011262000e115762000e1062000de9565b5b8235905067ffffffffffffffff81111562000e315762000e3062000dee565b5b60208301915083600182028301111562000e505762000e4f62000df3565b5b9250929050565b6002811062000e6557600080fd5b50565b60008135905062000e798162000e57565b92915050565b60008060008060008060008060008060006101008c8e03121562000ea85762000ea762000b91565b5b600062000eb88e828f0162000dd2565b9b5050602062000ecb8e828f0162000d4d565b9a505060408c013567ffffffffffffffff81111562000eef5762000eee62000b96565b5b62000efd8e828f0162000df8565b995099505060608c013567ffffffffffffffff81111562000f235762000f2262000b96565b5b62000f318e828f0162000df8565b975097505060808c013567ffffffffffffffff81111562000f575762000f5662000b96565b5b62000f658e828f0162000df8565b955095505060a062000f7a8e828f0162000e68565b93505060c062000f8d8e828f0162000d4d565b92505060e062000fa08e828f0162000d4d565b9150509295989b509295989b9093969950565b62000fbe8162000d1f565b82525050565b600060208201905062000fdb600083018462000fb3565b92915050565b600082825260208201905092915050565b7f416363657373436f6e74726f6c3a2063616e206f6e6c792072656e6f756e636560008201527f20726f6c657320666f722073656c660000000000000000000000000000000000602082015250565b600062001050602f8362000fe1565b91506200105d8262000ff2565b604082019050919050565b60006020820190508181036000830152620010838162001041565b9050919050565b7f4e487b7100000000000000000000000000000000000000000000000000000000600052602160045260246000fd5b620010c48162000dab565b82525050565b82818337600083830152505050565b6000601f19601f8301169050919050565b6000620010f8838562000fe1565b935062001107838584620010ca565b6200111283620010d9565b840190509392505050565b600060e08201905062001134600083018d620010b9565b62001143602083018c62000fb3565b818103604083015262001158818a8c620010ea565b905081810360608301526200116f81888a620010ea565b9050818103608083015262001186818688620010ea565b90506200119760a083018562000fb3565b620011a660c083018462000fb3565b9b9a5050505050505050505050565b600081905092915050565b7f416363657373436f6e74726f6c3a206163636f756e7420000000000000000000600082015250565b6000620011f8601783620011b5565b91506200120582620011c0565b601782019050919050565b600081519050919050565b60005b838110156200123b5780820151818401526020810190506200121e565b838111156200124b576000848401525b50505050565b60006200125e8262001210565b6200126a8185620011b5565b93506200127c8185602086016200121b565b80840191505092915050565b7f206973206d697373696e6720726f6c6520000000000000000000000000000000600082015250565b6000620012c0601183620011b5565b9150620012cd8262001288565b601182019050919050565b6000620012e582620011e9565b9150620012f3828562001251565b91506200130082620012b1565b91506200130e828462001251565b91508190509392505050565b6000620013278262001210565b62001333818562000fe1565b9350620013458185602086016200121b565b6200135081620010d9565b840191505092915050565b600060208201905081810360008301526200137781846200131a565b905092915050565b6000819050919050565b7f4e487b7100000000000000000000000000000000000000000000000000000000600052601160045260246000fd5b6000620013c5826200137f565b9150620013d2836200137f565b9250817fffffffffffffffffffffffffffffffffffffffffffffffffffffffffffffffff04831182151516156200140e576200140d62001389565b5b828202905092915050565b600062001426826200137f565b915062001433836200137f565b9250827fffffffffffffffffffffffffffffffffffffffffffffffffffffffffffffffff038211156200146b576200146a62001389565b5b828201905092915050565b7f4e487b7100000000000000000000000000000000000000000000000000000000600052604160045260246000fd5b7f4e487b7100000000000000000000000000000000000000000000000000000000600052603260045260246000fd5b6000620014e1826200137f565b915060008203620014f757620014f662001389565b5b600182039050919050565b7f537472696e67733a20686578206c656e67746820696e73756666696369656e74600082015250565b60006200153a60208362000fe1565b9150620015478262001502565b602082019050919050565b600060208201905081810360008301526200156d816200152b565b905091905056fe608060405234801561001057600080fd5b50611843806100206000396000f3fe608060405234801561001057600080fd5b50600436106101005760003560e01c80636ed5552a11610097578063cf8197f711610066578063cf8197f7146102b1578063d547741f146102cf578063df6ac544146102eb578063e00246041461030757610100565b80636ed5552a1461021557806391d1485414610233578063a217fddf14610263578063a230c5241461028157610100565b80632f2ff15d116100d35780632f2ff15d146101a157806332a2c5d0146101bd5780633408e470146101db57806336568abe146101f957610100565b806301ffc9a71461010557806310fe9ae81461013557806317d7de7c14610153578063248a9ca314610171575b600080fd5b61011f600480360381019061011a9190610f2b565b610325565b60405161012c9190610f73565b60405180910390f35b61013d61039f565b60405161014a9190610fcf565b60405180910390f35b61015b610437565b6040516101689190611083565b60405180910390f35b61018b600480360381019061018691906110db565b6104c9565b6040516101989190611117565b60405180910390f35b6101bb60048036038101906101b6919061115e565b6104e8565b005b6101c5610511565b6040516101d29190610fcf565b60405180910390f35b6101e361053b565b6040516101f091906111ba565b60405180910390f35b610213600480360381019061020e919061115e565b610552565b005b61021d6105d5565b60405161022a9190611083565b60405180910390f35b61024d6004803603810190610248919061115e565b610667565b60405161025a9190610f73565b60405180910390f35b61026b6106d1565b6040516102789190611117565b60405180910390f35b61029b600480360381019061029691906111d5565b6106d8565b6040516102a89190610f73565b60405180910390f35b6102b961077d565b6040516102c69190610fcf565b60405180910390f35b6102e960048036038101906102e4919061115e565b6107a7565b005b61030560048036038101906103009190611293565b6107d0565b005b61030f6108f0565b60405161031c9190610fcf565b60405180910390f35b60007f7965db0b000000000000000000000000000000000000000000000000000000007bffffffffffffffffffffffffffffffffffffffffffffffffffffffff1916827bffffffffffffffffffffffffffffffffffffffffffffffffffffffff1916148061039857506103978261091a565b5b9050919050565b6000600660009054906101000a900473ffffffffffffffffffffffffffffffffffffffff1673ffffffffffffffffffffffffffffffffffffffff166310fe9ae86040518163ffffffff1660e01b8152600401602060405180830381865afa15801561040e573d6000803e3d6000fd5b505050506040513d601f19601f8201168201806040525081019061043291906113ab565b905090565b60606003805461044690611407565b80601f016020809104026020016040519081016040528092919081815260200182805461047290611407565b80156104bf5780601f10610494576101008083540402835291602001916104bf565b820191906000526020600020905b8154815290600101906020018083116104a257829003601f168201915b5050505050905090565b6000806000838152602001908152602001600020600101549050919050565b6104f1826104c9565b610502816104fd610984565b61098c565b61050c8383610a29565b505050565b6000600260009054906101000a900473ffffffffffffffffffffffffffffffffffffffff16905090565b6000600160149054906101000a900460ff16905090565b61055a610984565b73ffffffffffffffffffffffffffffffffffffffff168173ffffffffffffffffffffffffffffffffffffffff16146105c7576040517f08c379a00000000000000000000000000000000000000000000000000000000081526004016105be906114aa565b60405180910390fd5b6105d18282610b09565b5050565b6060600580546105e490611407565b80601f016020809104026020016040519081016040528092919081815260200182805461061090611407565b801561065d5780601f106106325761010080835404028352916020019161065d565b820191906000526020600020905b81548152906001019060200180831161064057829003601f168201915b5050505050905090565b600080600084815260200190815260200160002060000160008373ffffffffffffffffffffffffffffffffffffffff1673ffffffffffffffffffffffffffffffffffffffff16815260200190815260200160002060009054906101000a900460ff16905092915050565b6000801b81565b6000600660009054906101000a900473ffffffffffffffffffffffffffffffffffffffff1673ffffffffffffffffffffffffffffffffffffffff1663a230c524836040518263ffffffff1660e01b81526004016107359190610fcf565b602060405180830381865afa158015610752573d6000803e3d6000fd5b505050506040513d601f19601f8201168201806040525081019061077691906114f6565b9050919050565b6000600660009054906101000a900473ffffffffffffffffffffffffffffffffffffffff16905090565b6107b0826104c9565b6107c1816107bc610984565b61098c565b6107cb8383610b09565b505050565b89600160146101000a81548160ff021916908360ff16021790555088600260006101000a81548173ffffffffffffffffffffffffffffffffffffffff021916908373ffffffffffffffffffffffffffffffffffffffff16021790555087876003919061083d929190610e26565b5085856004919061084f929190610e26565b50838360059190610861929190610e26565b5081600660006101000a81548173ffffffffffffffffffffffffffffffffffffffff021916908373ffffffffffffffffffffffffffffffffffffffff16021790555080600760006101000a81548173ffffffffffffffffffffffffffffffffffffffff021916908373ffffffffffffffffffffffffffffffffffffffff16021790555050505050505050505050565b6000600760009054906101000a900473ffffffffffffffffffffffffffffffffffffffff16905090565b60007f01ffc9a7000000000000000000000000000000000000000000000000000000007bffffffffffffffffffffffffffffffffffffffffffffffffffffffff1916827bffffffffffffffffffffffffffffffffffffffffffffffffffffffff1916149050919050565b600033905090565b6109968282610667565b610a25576109bb8173ffffffffffffffffffffffffffffffffffffffff166014610bea565b6109c98360001c6020610bea565b6040516020016109da9291906115f7565b6040516020818303038152906040526040517f08c379a0000000000000000000000000000000000000000000000000000000008152600401610a1c9190611083565b60405180910390fd5b5050565b610a338282610667565b610b0557600160008084815260200190815260200160002060000160008373ffffffffffffffffffffffffffffffffffffffff1673ffffffffffffffffffffffffffffffffffffffff16815260200190815260200160002060006101000a81548160ff021916908315150217905550610aaa610984565b73ffffffffffffffffffffffffffffffffffffffff168173ffffffffffffffffffffffffffffffffffffffff16837f2f8788117e7eff1d82e926ec794901d17c78024a50270940304540a733656f0d60405160405180910390a45b5050565b610b138282610667565b15610be657600080600084815260200190815260200160002060000160008373ffffffffffffffffffffffffffffffffffffffff1673ffffffffffffffffffffffffffffffffffffffff16815260200190815260200160002060006101000a81548160ff021916908315150217905550610b8b610984565b73ffffffffffffffffffffffffffffffffffffffff168173ffffffffffffffffffffffffffffffffffffffff16837ff6391f5c32d9c69d2a47ea670b442974b53935d1edc7fd64eb21e047a839171b60405160405180910390a45b5050565b606060006002836002610bfd919061166a565b610c0791906116c4565b67ffffffffffffffff811115610c2057610c1f61171a565b5b6040519080825280601f01601f191660200182016040528015610c525781602001600182028036833780820191505090505b5090507f300000000000000000000000000000000000000000000000000000000000000081600081518110610c8a57610c89611749565b5b60200101907effffffffffffffffffffffffffffffffffffffffffffffffffffffffffffff1916908160001a9053507f780000000000000000000000000000000000000000000000000000000000000081600181518110610cee57610ced611749565b5b60200101907effffffffffffffffffffffffffffffffffffffffffffffffffffffffffffff1916908160001a90535060006001846002610d2e919061166a565b610d3891906116c4565b90505b6001811115610dd8577f3031323334353637383961626364656600000000000000000000000000000000600f861660108110610d7a57610d79611749565b5b1a60f81b828281518110610d9157610d90611749565b5b60200101907effffffffffffffffffffffffffffffffffffffffffffffffffffffffffffff1916908160001a905350600485901c945080610dd190611778565b9050610d3b565b5060008414610e1c576040517f08c379a0000000000000000000000000000000000000000000000000000000008152600401610e13906117ed565b60405180910390fd5b8091505092915050565b828054610e3290611407565b90600052602060002090601f016020900481019282610e545760008555610e9b565b82601f10610e6d57803560ff1916838001178555610e9b565b82800160010185558215610e9b579182015b82811115610e9a578235825591602001919060010190610e7f565b5b509050610ea89190610eac565b5090565b5b80821115610ec5576000816000905550600101610ead565b5090565b600080fd5b600080fd5b60007fffffffff0000000000000000000000000000000000000000000000000000000082169050919050565b610f0881610ed3565b8114610f1357600080fd5b50565b600081359050610f2581610eff565b92915050565b600060208284031215610f4157610f40610ec9565b5b6000610f4f84828501610f16565b91505092915050565b60008115159050919050565b610f6d81610f58565b82525050565b6000602082019050610f886000830184610f64565b92915050565b600073ffffffffffffffffffffffffffffffffffffffff82169050919050565b6000610fb982610f8e565b9050919050565b610fc981610fae565b82525050565b6000602082019050610fe46000830184610fc0565b92915050565b600081519050919050565b600082825260208201905092915050565b60005b83811015611024578082015181840152602081019050611009565b83811115611033576000848401525b50505050565b6000601f19601f8301169050919050565b600061105582610fea565b61105f8185610ff5565b935061106f818560208601611006565b61107881611039565b840191505092915050565b6000602082019050818103600083015261109d818461104a565b905092915050565b6000819050919050565b6110b8816110a5565b81146110c357600080fd5b50565b6000813590506110d5816110af565b92915050565b6000602082840312156110f1576110f0610ec9565b5b60006110ff848285016110c6565b91505092915050565b611111816110a5565b82525050565b600060208201905061112c6000830184611108565b92915050565b61113b81610fae565b811461114657600080fd5b50565b60008135905061115881611132565b92915050565b6000806040838503121561117557611174610ec9565b5b6000611183858286016110c6565b925050602061119485828601611149565b9150509250929050565b600060ff82169050919050565b6111b48161119e565b82525050565b60006020820190506111cf60008301846111ab565b92915050565b6000602082840312156111eb576111ea610ec9565b5b60006111f984828501611149565b91505092915050565b61120b8161119e565b811461121657600080fd5b50565b60008135905061122881611202565b92915050565b600080fd5b600080fd5b600080fd5b60008083601f8401126112535761125261122e565b5b8235905067ffffffffffffffff8111156112705761126f611233565b5b60208301915083600182028301111561128c5761128b611238565b5b9250929050565b60008060008060008060008060008060e08b8d0312156112b6576112b5610ec9565b5b60006112c48d828e01611219565b9a505060206112d58d828e01611149565b99505060408b013567ffffffffffffffff8111156112f6576112f5610ece565b5b6113028d828e0161123d565b985098505060608b013567ffffffffffffffff81111561132557611324610ece565b5b6113318d828e0161123d565b965096505060808b013567ffffffffffffffff81111561135457611353610ece565b5b6113608d828e0161123d565b945094505060a06113738d828e01611149565b92505060c06113848d828e01611149565b9150509295989b9194979a5092959850565b6000815190506113a581611132565b92915050565b6000602082840312156113c1576113c0610ec9565b5b60006113cf84828501611396565b91505092915050565b7f4e487b7100000000000000000000000000000000000000000000000000000000600052602260045260246000fd5b6000600282049050600182168061141f57607f821691505b602082108103611432576114316113d8565b5b50919050565b7f416363657373436f6e74726f6c3a2063616e206f6e6c792072656e6f756e636560008201527f20726f6c657320666f722073656c660000000000000000000000000000000000602082015250565b6000611494602f83610ff5565b915061149f82611438565b604082019050919050565b600060208201905081810360008301526114c381611487565b9050919050565b6114d381610f58565b81146114de57600080fd5b50565b6000815190506114f0816114ca565b92915050565b60006020828403121561150c5761150b610ec9565b5b600061151a848285016114e1565b91505092915050565b600081905092915050565b7f416363657373436f6e74726f6c3a206163636f756e7420000000000000000000600082015250565b6000611564601783611523565b915061156f8261152e565b601782019050919050565b600061158582610fea565b61158f8185611523565b935061159f818560208601611006565b80840191505092915050565b7f206973206d697373696e6720726f6c6520000000000000000000000000000000600082015250565b60006115e1601183611523565b91506115ec826115ab565b601182019050919050565b600061160282611557565b915061160e828561157a565b9150611619826115d4565b9150611625828461157a565b91508190509392505050565b6000819050919050565b7f4e487b7100000000000000000000000000000000000000000000000000000000600052601160045260246000fd5b600061167582611631565b915061168083611631565b9250817fffffffffffffffffffffffffffffffffffffffffffffffffffffffffffffffff04831182151516156116b9576116b861163b565b5b828202905092915050565b60006116cf82611631565b91506116da83611631565b9250827fffffffffffffffffffffffffffffffffffffffffffffffffffffffffffffffff0382111561170f5761170e61163b565b5b828201905092915050565b7f4e487b7100000000000000000000000000000000000000000000000000000000600052604160045260246000fd5b7f4e487b7100000000000000000000000000000000000000000000000000000000600052603260045260246000fd5b600061178382611631565b9150600082036117965761179561163b565b5b600182039050919050565b7f537472696e67733a20686578206c656e67746820696e73756666696369656e74600082015250565b60006117d7602083610ff5565b91506117e2826117a1565b602082019050919050565b60006020820190508181036000830152611806816117ca565b905091905056fea2646970667358221220328da02906b52f74789033056ae8026d449d79cc004dcfe44b6d6b27b6b3a87164736f6c634300080d003360806040523480156200001157600080fd5b50604051620011d7380380620011d78339818101604052810190620000379190620000e9565b80600160006101000a81548173ffffffffffffffffffffffffffffffffffffffff021916908373ffffffffffffffffffffffffffffffffffffffff160217905550506200011b565b600080fd5b600073ffffffffffffffffffffffffffffffffffffffff82169050919050565b6000620000b18262000084565b9050919050565b620000c381620000a4565b8114620000cf57600080fd5b50565b600081519050620000e381620000b8565b92915050565b6000602082840312156200010257620001016200007f565b5b60006200011284828501620000d2565b91505092915050565b6110ac806200012b6000396000f3fe608060405234801561001057600080fd5b50600436106100935760003560e01c806336568abe1161006657806336568abe1461013257806391d148541461014e578063a217fddf1461017e578063a230c5241461019c578063d547741f146101cc57610093565b806301ffc9a71461009857806310fe9ae8146100c8578063248a9ca3146100e65780632f2ff15d14610116575b600080fd5b6100b260048036038101906100ad9190610a01565b6101e8565b6040516100bf9190610a49565b60405180910390f35b6100d0610262565b6040516100dd9190610aa5565b60405180910390f35b61010060048036038101906100fb9190610af6565b61028c565b60405161010d9190610b32565b60405180910390f35b610130600480360381019061012b9190610b79565b6102ab565b005b61014c60048036038101906101479190610b79565b6102d4565b005b61016860048036038101906101639190610b79565b610357565b6040516101759190610a49565b60405180910390f35b6101866103c1565b6040516101939190610b32565b60405180910390f35b6101b660048036038101906101b19190610bb9565b6103c8565b6040516101c39190610a49565b60405180910390f35b6101e660048036038101906101e19190610b79565b61046f565b005b60007f7965db0b000000000000000000000000000000000000000000000000000000007bffffffffffffffffffffffffffffffffffffffffffffffffffffffff1916827bffffffffffffffffffffffffffffffffffffffffffffffffffffffff1916148061025b575061025a82610498565b5b9050919050565b6000600160009054906101000a900473ffffffffffffffffffffffffffffffffffffffff16905090565b6000806000838152602001908152602001600020600101549050919050565b6102b48261028c565b6102c5816102c0610502565b61050a565b6102cf83836105a7565b505050565b6102dc610502565b73ffffffffffffffffffffffffffffffffffffffff168173ffffffffffffffffffffffffffffffffffffffff1614610349576040517f08c379a000000000000000000000000000000000000000000000000000000000815260040161034090610c69565b60405180910390fd5b6103538282610687565b5050565b600080600084815260200190815260200160002060000160008373ffffffffffffffffffffffffffffffffffffffff1673ffffffffffffffffffffffffffffffffffffffff16815260200190815260200160002060009054906101000a900460ff16905092915050565b6000801b81565b600080600160009054906101000a900473ffffffffffffffffffffffffffffffffffffffff1673ffffffffffffffffffffffffffffffffffffffff166370a08231846040518263ffffffff1660e01b81526004016104269190610aa5565b602060405180830381865afa158015610443573d6000803e3d6000fd5b505050506040513d601f19601f820116820180604052508101906104679190610cbf565b119050919050565b6104788261028c565b61048981610484610502565b61050a565b6104938383610687565b505050565b60007f01ffc9a7000000000000000000000000000000000000000000000000000000007bffffffffffffffffffffffffffffffffffffffffffffffffffffffff1916827bffffffffffffffffffffffffffffffffffffffffffffffffffffffff1916149050919050565b600033905090565b6105148282610357565b6105a3576105398173ffffffffffffffffffffffffffffffffffffffff166014610768565b6105478360001c6020610768565b604051602001610558929190610dfe565b6040516020818303038152906040526040517f08c379a000000000000000000000000000000000000000000000000000000000815260040161059a9190610e82565b60405180910390fd5b5050565b6105b18282610357565b61068357600160008084815260200190815260200160002060000160008373ffffffffffffffffffffffffffffffffffffffff1673ffffffffffffffffffffffffffffffffffffffff16815260200190815260200160002060006101000a81548160ff021916908315150217905550610628610502565b73ffffffffffffffffffffffffffffffffffffffff168173ffffffffffffffffffffffffffffffffffffffff16837f2f8788117e7eff1d82e926ec794901d17c78024a50270940304540a733656f0d60405160405180910390a45b5050565b6106918282610357565b1561076457600080600084815260200190815260200160002060000160008373ffffffffffffffffffffffffffffffffffffffff1673ffffffffffffffffffffffffffffffffffffffff16815260200190815260200160002060006101000a81548160ff021916908315150217905550610709610502565b73ffffffffffffffffffffffffffffffffffffffff168173ffffffffffffffffffffffffffffffffffffffff16837ff6391f5c32d9c69d2a47ea670b442974b53935d1edc7fd64eb21e047a839171b60405160405180910390a45b5050565b60606000600283600261077b9190610ed3565b6107859190610f2d565b67ffffffffffffffff81111561079e5761079d610f83565b5b6040519080825280601f01601f1916602001820160405280156107d05781602001600182028036833780820191505090505b5090507f30000000000000000000000000000000000000000000000000000000000000008160008151811061080857610807610fb2565b5b60200101907effffffffffffffffffffffffffffffffffffffffffffffffffffffffffffff1916908160001a9053507f78000000000000000000000000000000000000000000000000000000000000008160018151811061086c5761086b610fb2565b5b60200101907effffffffffffffffffffffffffffffffffffffffffffffffffffffffffffff1916908160001a905350600060018460026108ac9190610ed3565b6108b69190610f2d565b90505b6001811115610956577f3031323334353637383961626364656600000000000000000000000000000000600f8616601081106108f8576108f7610fb2565b5b1a60f81b82828151811061090f5761090e610fb2565b5b60200101907effffffffffffffffffffffffffffffffffffffffffffffffffffffffffffff1916908160001a905350600485901c94508061094f90610fe1565b90506108b9565b506000841461099a576040517f08c379a000000000000000000000000000000000000000000000000000000000815260040161099190611056565b60405180910390fd5b8091505092915050565b600080fd5b60007fffffffff0000000000000000000000000000000000000000000000000000000082169050919050565b6109de816109a9565b81146109e957600080fd5b50565b6000813590506109fb816109d5565b92915050565b600060208284031215610a1757610a166109a4565b5b6000610a25848285016109ec565b91505092915050565b60008115159050919050565b610a4381610a2e565b82525050565b6000602082019050610a5e6000830184610a3a565b92915050565b600073ffffffffffffffffffffffffffffffffffffffff82169050919050565b6000610a8f82610a64565b9050919050565b610a9f81610a84565b82525050565b6000602082019050610aba6000830184610a96565b92915050565b6000819050919050565b610ad381610ac0565b8114610ade57600080fd5b50565b600081359050610af081610aca565b92915050565b600060208284031215610b0c57610b0b6109a4565b5b6000610b1a84828501610ae1565b91505092915050565b610b2c81610ac0565b82525050565b6000602082019050610b476000830184610b23565b92915050565b610b5681610a84565b8114610b6157600080fd5b50565b600081359050610b7381610b4d565b92915050565b60008060408385031215610b9057610b8f6109a4565b5b6000610b9e85828601610ae1565b9250506020610baf85828601610b64565b9150509250929050565b600060208284031215610bcf57610bce6109a4565b5b6000610bdd84828501610b64565b91505092915050565b600082825260208201905092915050565b7f416363657373436f6e74726f6c3a2063616e206f6e6c792072656e6f756e636560008201527f20726f6c657320666f722073656c660000000000000000000000000000000000602082015250565b6000610c53602f83610be6565b9150610c5e82610bf7565b604082019050919050565b60006020820190508181036000830152610c8281610c46565b9050919050565b6000819050919050565b610c9c81610c89565b8114610ca757600080fd5b50565b600081519050610cb981610c93565b92915050565b600060208284031215610cd557610cd46109a4565b5b6000610ce384828501610caa565b91505092915050565b600081905092915050565b7f416363657373436f6e74726f6c3a206163636f756e7420000000000000000000600082015250565b6000610d2d601783610cec565b9150610d3882610cf7565b601782019050919050565b600081519050919050565b60005b83811015610d6c578082015181840152602081019050610d51565b83811115610d7b576000848401525b50505050565b6000610d8c82610d43565b610d968185610cec565b9350610da6818560208601610d4e565b80840191505092915050565b7f206973206d697373696e6720726f6c6520000000000000000000000000000000600082015250565b6000610de8601183610cec565b9150610df382610db2565b601182019050919050565b6000610e0982610d20565b9150610e158285610d81565b9150610e2082610ddb565b9150610e2c8284610d81565b91508190509392505050565b6000601f19601f8301169050919050565b6000610e5482610d43565b610e5e8185610be6565b9350610e6e818560208601610d4e565b610e7781610e38565b840191505092915050565b60006020820190508181036000830152610e9c8184610e49565b905092915050565b7f4e487b7100000000000000000000000000000000000000000000000000000000600052601160045260246000fd5b6000610ede82610c89565b9150610ee983610c89565b9250817fffffffffffffffffffffffffffffffffffffffffffffffffffffffffffffffff0483118215151615610f2257610f21610ea4565b5b828202905092915050565b6000610f3882610c89565b9150610f4383610c89565b9250827fffffffffffffffffffffffffffffffffffffffffffffffffffffffffffffffff03821115610f7857610f77610ea4565b5b828201905092915050565b7f4e487b7100000000000000000000000000000000000000000000000000000000600052604160045260246000fd5b7f4e487b7100000000000000000000000000000000000000000000000000000000600052603260045260246000fd5b6000610fec82610c89565b915060008203610fff57610ffe610ea4565b5b600182039050919050565b7f537472696e67733a20686578206c656e67746820696e73756666696369656e74600082015250565b6000611040602083610be6565b915061104b8261100a565b602082019050919050565b6000602082019050818103600083015261106f81611033565b905091905056fea2646970667358221220ca566ad0a6dc425d642403f492764969d1f83715b3647c0effd404f1359bf4a164736f6c634300080d003360806040523480156200001157600080fd5b50604051620011d7380380620011d78339818101604052810190620000379190620000e9565b80600160006101000a81548173ffffffffffffffffffffffffffffffffffffffff021916908373ffffffffffffffffffffffffffffffffffffffff160217905550506200011b565b600080fd5b600073ffffffffffffffffffffffffffffffffffffffff82169050919050565b6000620000b18262000084565b9050919050565b620000c381620000a4565b8114620000cf57600080fd5b50565b600081519050620000e381620000b8565b92915050565b6000602082840312156200010257620001016200007f565b5b60006200011284828501620000d2565b91505092915050565b6110ac806200012b6000396000f3fe608060405234801561001057600080fd5b50600436106100935760003560e01c806336568abe1161006657806336568abe1461013257806391d148541461014e578063a217fddf1461017e578063a230c5241461019c578063d547741f146101cc57610093565b806301ffc9a71461009857806310fe9ae8146100c8578063248a9ca3146100e65780632f2ff15d14610116575b600080fd5b6100b260048036038101906100ad9190610a01565b6101e8565b6040516100bf9190610a49565b60405180910390f35b6100d0610262565b6040516100dd9190610aa5565b60405180910390f35b61010060048036038101906100fb9190610af6565b61028c565b60405161010d9190610b32565b60405180910390f35b610130600480360381019061012b9190610b79565b6102ab565b005b61014c60048036038101906101479190610b79565b6102d4565b005b61016860048036038101906101639190610b79565b610357565b6040516101759190610a49565b60405180910390f35b6101866103c1565b6040516101939190610b32565b60405180910390f35b6101b660048036038101906101b19190610bb9565b6103c8565b6040516101c39190610a49565b60405180910390f35b6101e660048036038101906101e19190610b79565b61046f565b005b60007f7965db0b000000000000000000000000000000000000000000000000000000007bffffffffffffffffffffffffffffffffffffffffffffffffffffffff1916827bffffffffffffffffffffffffffffffffffffffffffffffffffffffff1916148061025b575061025a82610498565b5b9050919050565b6000600160009054906101000a900473ffffffffffffffffffffffffffffffffffffffff16905090565b6000806000838152602001908152602001600020600101549050919050565b6102b48261028c565b6102c5816102c0610502565b61050a565b6102cf83836105a7565b505050565b6102dc610502565b73ffffffffffffffffffffffffffffffffffffffff168173ffffffffffffffffffffffffffffffffffffffff1614610349576040517f08c379a000000000000000000000000000000000000000000000000000000000815260040161034090610c69565b60405180910390fd5b6103538282610687565b5050565b600080600084815260200190815260200160002060000160008373ffffffffffffffffffffffffffffffffffffffff1673ffffffffffffffffffffffffffffffffffffffff16815260200190815260200160002060009054906101000a900460ff16905092915050565b6000801b81565b600080600160009054906101000a900473ffffffffffffffffffffffffffffffffffffffff1673ffffffffffffffffffffffffffffffffffffffff166370a08231846040518263ffffffff1660e01b81526004016104269190610aa5565b602060405180830381865afa158015610443573d6000803e3d6000fd5b505050506040513d601f19601f820116820180604052508101906104679190610cbf565b119050919050565b6104788261028c565b61048981610484610502565b61050a565b6104938383610687565b505050565b60007f01ffc9a7000000000000000000000000000000000000000000000000000000007bffffffffffffffffffffffffffffffffffffffffffffffffffffffff1916827bffffffffffffffffffffffffffffffffffffffffffffffffffffffff1916149050919050565b600033905090565b6105148282610357565b6105a3576105398173ffffffffffffffffffffffffffffffffffffffff166014610768565b6105478360001c6020610768565b604051602001610558929190610dfe565b6040516020818303038152906040526040517f08c379a000000000000000000000000000000000000000000000000000000000815260040161059a9190610e82565b60405180910390fd5b5050565b6105b18282610357565b61068357600160008084815260200190815260200160002060000160008373ffffffffffffffffffffffffffffffffffffffff1673ffffffffffffffffffffffffffffffffffffffff16815260200190815260200160002060006101000a81548160ff021916908315150217905550610628610502565b73ffffffffffffffffffffffffffffffffffffffff168173ffffffffffffffffffffffffffffffffffffffff16837f2f8788117e7eff1d82e926ec794901d17c78024a50270940304540a733656f0d60405160405180910390a45b5050565b6106918282610357565b1561076457600080600084815260200190815260200160002060000160008373ffffffffffffffffffffffffffffffffffffffff1673ffffffffffffffffffffffffffffffffffffffff16815260200190815260200160002060006101000a81548160ff021916908315150217905550610709610502565b73ffffffffffffffffffffffffffffffffffffffff168173ffffffffffffffffffffffffffffffffffffffff16837ff6391f5c32d9c69d2a47ea670b442974b53935d1edc7fd64eb21e047a839171b60405160405180910390a45b5050565b60606000600283600261077b9190610ed3565b6107859190610f2d565b67ffffffffffffffff81111561079e5761079d610f83565b5b6040519080825280601f01601f1916602001820160405280156107d05781602001600182028036833780820191505090505b5090507f30000000000000000000000000000000000000000000000000000000000000008160008151811061080857610807610fb2565b5b60200101907effffffffffffffffffffffffffffffffffffffffffffffffffffffffffffff1916908160001a9053507f78000000000000000000000000000000000000000000000000000000000000008160018151811061086c5761086b610fb2565b5b60200101907effffffffffffffffffffffffffffffffffffffffffffffffffffffffffffff1916908160001a905350600060018460026108ac9190610ed3565b6108b69190610f2d565b90505b6001811115610956577f3031323334353637383961626364656600000000000000000000000000000000600f8616601081106108f8576108f7610fb2565b5b1a60f81b82828151811061090f5761090e610fb2565b5b60200101907effffffffffffffffffffffffffffffffffffffffffffffffffffffffffffff1916908160001a905350600485901c94508061094f90610fe1565b90506108b9565b506000841461099a576040517f08c379a000000000000000000000000000000000000000000000000000000000815260040161099190611056565b60405180910390fd5b8091505092915050565b600080fd5b60007fffffffff0000000000000000000000000000000000000000000000000000000082169050919050565b6109de816109a9565b81146109e957600080fd5b50565b6000813590506109fb816109d5565b92915050565b600060208284031215610a1757610a166109a4565b5b6000610a25848285016109ec565b91505092915050565b60008115159050919050565b610a4381610a2e565b82525050565b6000602082019050610a5e6000830184610a3a565b92915050565b600073ffffffffffffffffffffffffffffffffffffffff82169050919050565b6000610a8f82610a64565b9050919050565b610a9f81610a84565b82525050565b6000602082019050610aba6000830184610a96565b92915050565b6000819050919050565b610ad381610ac0565b8114610ade57600080fd5b50565b600081359050610af081610aca565b92915050565b600060208284031215610b0c57610b0b6109a4565b5b6000610b1a84828501610ae1565b91505092915050565b610b2c81610ac0565b82525050565b6000602082019050610b476000830184610b23565b92915050565b610b5681610a84565b8114610b6157600080fd5b50565b600081359050610b7381610b4d565b92915050565b60008060408385031215610b9057610b8f6109a4565b5b6000610b9e85828601610ae1565b9250506020610baf85828601610b64565b9150509250929050565b600060208284031215610bcf57610bce6109a4565b5b6000610bdd84828501610b64565b91505092915050565b600082825260208201905092915050565b7f416363657373436f6e74726f6c3a2063616e206f6e6c792072656e6f756e636560008201527f20726f6c657320666f722073656c660000000000000000000000000000000000602082015250565b6000610c53602f83610be6565b9150610c5e82610bf7565b604082019050919050565b60006020820190508181036000830152610c8281610c46565b9050919050565b6000819050919050565b610c9c81610c89565b8114610ca757600080fd5b50565b600081519050610cb981610c93565b92915050565b600060208284031215610cd557610cd46109a4565b5b6000610ce384828501610caa565b91505092915050565b600081905092915050565b7f416363657373436f6e74726f6c3a206163636f756e7420000000000000000000600082015250565b6000610d2d601783610cec565b9150610d3882610cf7565b601782019050919050565b600081519050919050565b60005b83811015610d6c578082015181840152602081019050610d51565b83811115610d7b576000848401525b50505050565b6000610d8c82610d43565b610d968185610cec565b9350610da6818560208601610d4e565b80840191505092915050565b7f206973206d697373696e6720726f6c6520000000000000000000000000000000600082015250565b6000610de8601183610cec565b9150610df382610db2565b601182019050919050565b6000610e0982610d20565b9150610e158285610d81565b9150610e2082610ddb565b9150610e2c8284610d81565b91508190509392505050565b6000601f19601f8301169050919050565b6000610e5482610d43565b610e5e8185610be6565b9350610e6e818560208601610d4e565b610e7781610e38565b840191505092915050565b60006020820190508181036000830152610e9c8184610e49565b905092915050565b7f4e487b7100000000000000000000000000000000000000000000000000000000600052601160045260246000fd5b6000610ede82610c89565b9150610ee983610c89565b9250817fffffffffffffffffffffffffffffffffffffffffffffffffffffffffffffffff0483118215151615610f2257610f21610ea4565b5b828202905092915050565b6000610f3882610c89565b9150610f4383610c89565b9250827fffffffffffffffffffffffffffffffffffffffffffffffffffffffffffffffff03821115610f7857610f77610ea4565b5b828201905092915050565b7f4e487b7100000000000000000000000000000000000000000000000000000000600052604160045260246000fd5b7f4e487b7100000000000000000000000000000000000000000000000000000000600052603260045260246000fd5b6000610fec82610c89565b915060008203610fff57610ffe610ea4565b5b600182039050919050565b7f537472696e67733a20686578206c656e67746820696e73756666696369656e74600082015250565b6000611040602083610be6565b915061104b8261100a565b602082019050919050565b6000602082019050818103600083015261106f81611033565b905091905056fea26469706673582212205abdf83ba55a4e97ae3c8e923a5122dd335af7efabffae3e7fccb08db118813864736f6c634300080d0033a26469706673582212201ad499bfbaf9e93327d8da2e31e2e591e452eccd6f729ae3e4406c6e473c616164736f6c634300080d0033",
  "linkReferences": {},
  "deployedLinkReferences": {}
}