{
  "_format": "hh-sol-artifact-1",
  "contractName": "DAOProxy",
  "sourceName": "contracts/dao/DAOProxy.sol",
  "abi": [
    {
      "anonymous": false,
      "inputs": [
        {
          "indexed": true,
          "internalType": "bytes32",
          "name": "role",
          "type": "bytes32"
        },
        {
          "indexed": true,
          "internalType": "bytes32",
          "name": "previousAdminRole",
          "type": "bytes32"
        },
        {
          "indexed": true,
          "internalType": "bytes32",
          "name": "newAdminRole",
          "type": "bytes32"
        }
      ],
      "name": "RoleAdminChanged",
      "type": "event"
    },
    {
      "anonymous": false,
      "inputs": [
        {
          "indexed": true,
          "internalType": "bytes32",
          "name": "role",
          "type": "bytes32"
        },
        {
          "indexed": true,
          "internalType": "address",
          "name": "account",
          "type": "address"
        },
        {
          "indexed": true,
          "internalType": "address",
          "name": "sender",
          "type": "address"
        }
      ],
      "name": "RoleGranted",
      "type": "event"
    },
    {
      "anonymous": false,
      "inputs": [
        {
          "indexed": true,
          "internalType": "bytes32",
          "name": "role",
          "type": "bytes32"
        },
        {
          "indexed": true,
          "internalType": "address",
          "name": "account",
          "type": "address"
        },
        {
          "indexed": true,
          "internalType": "address",
          "name": "sender",
          "type": "address"
        }
      ],
      "name": "RoleRevoked",
      "type": "event"
    },
    {
      "inputs": [],
      "name": "DEFAULT_ADMIN_ROLE",
      "outputs": [
        {
          "internalType": "bytes32",
          "name": "",
          "type": "bytes32"
        }
      ],
      "stateMutability": "view",
      "type": "function"
    },
    {
      "inputs": [],
      "name": "getChainId",
      "outputs": [
        {
          "internalType": "uint8",
          "name": "",
          "type": "uint8"
        }
      ],
      "stateMutability": "view",
      "type": "function"
    },
    {
      "inputs": [],
      "name": "getLogoURI",
      "outputs": [
        {
          "internalType": "string",
          "name": "",
          "type": "string"
        }
      ],
      "stateMutability": "view",
      "type": "function"
    },
    {
      "inputs": [],
      "name": "getMembershipModuleAddress",
      "outputs": [
        {
          "internalType": "address",
          "name": "",
          "type": "address"
        }
      ],
      "stateMutability": "view",
      "type": "function"
    },
    {
      "inputs": [],
      "name": "getName",
      "outputs": [
        {
          "internalType": "string",
          "name": "",
          "type": "string"
        }
      ],
      "stateMutability": "view",
      "type": "function"
    },
    {
      "inputs": [
        {
          "internalType": "bytes32",
          "name": "role",
          "type": "bytes32"
        }
      ],
      "name": "getRoleAdmin",
      "outputs": [
        {
          "internalType": "bytes32",
          "name": "",
          "type": "bytes32"
        }
      ],
      "stateMutability": "view",
      "type": "function"
    },
    {
      "inputs": [],
      "name": "getTokenAddress",
      "outputs": [
        {
          "internalType": "address",
          "name": "",
          "type": "address"
        }
      ],
      "stateMutability": "view",
      "type": "function"
    },
    {
      "inputs": [],
      "name": "getTreasuryAddress",
      "outputs": [
        {
          "internalType": "address",
          "name": "",
          "type": "address"
        }
      ],
      "stateMutability": "view",
      "type": "function"
    },
    {
      "inputs": [
        {
          "internalType": "bytes32",
          "name": "role",
          "type": "bytes32"
        },
        {
          "internalType": "address",
          "name": "account",
          "type": "address"
        }
      ],
      "name": "grantRole",
      "outputs": [],
      "stateMutability": "nonpayable",
      "type": "function"
    },
    {
      "inputs": [
        {
          "internalType": "bytes32",
          "name": "role",
          "type": "bytes32"
        },
        {
          "internalType": "address",
          "name": "account",
          "type": "address"
        }
      ],
      "name": "hasRole",
      "outputs": [
        {
          "internalType": "bool",
          "name": "",
          "type": "bool"
        }
      ],
      "stateMutability": "view",
      "type": "function"
    },
    {
      "inputs": [
        {
          "internalType": "uint8",
          "name": "chainId",
          "type": "uint8"
        },
        {
          "internalType": "string",
          "name": "name",
          "type": "string"
        },
        {
          "internalType": "string",
          "name": "description",
          "type": "string"
        },
        {
          "internalType": "string",
          "name": "logoURI",
          "type": "string"
        },
        {
          "internalType": "address",
          "name": "membershipModule",
          "type": "address"
        },
        {
          "internalType": "address",
          "name": "treasury",
          "type": "address"
        }
      ],
      "name": "initialize",
      "outputs": [],
      "stateMutability": "nonpayable",
      "type": "function"
    },
    {
      "inputs": [
        {
          "internalType": "address",
          "name": "addr",
          "type": "address"
        }
      ],
      "name": "isMember",
      "outputs": [
        {
          "internalType": "bool",
          "name": "",
          "type": "bool"
        }
      ],
      "stateMutability": "view",
      "type": "function"
    },
    {
      "inputs": [
        {
          "internalType": "bytes32",
          "name": "role",
          "type": "bytes32"
        },
        {
          "internalType": "address",
          "name": "account",
          "type": "address"
        }
      ],
      "name": "renounceRole",
      "outputs": [],
      "stateMutability": "nonpayable",
      "type": "function"
    },
    {
      "inputs": [
        {
          "internalType": "bytes32",
          "name": "role",
          "type": "bytes32"
        },
        {
          "internalType": "address",
          "name": "account",
          "type": "address"
        }
      ],
      "name": "revokeRole",
      "outputs": [],
      "stateMutability": "nonpayable",
      "type": "function"
    },
    {
      "inputs": [
        {
          "internalType": "uint8",
          "name": "chainId",
          "type": "uint8"
        }
      ],
      "name": "setChainId",
      "outputs": [],
      "stateMutability": "nonpayable",
      "type": "function"
    },
    {
      "inputs": [
        {
          "internalType": "string",
          "name": "logoURI",
          "type": "string"
        }
      ],
      "name": "setLogoURI",
      "outputs": [],
      "stateMutability": "nonpayable",
      "type": "function"
    },
    {
      "inputs": [
        {
          "internalType": "address",
          "name": "membershipModule",
          "type": "address"
        }
      ],
      "name": "setMembershipModuleAddress",
      "outputs": [],
      "stateMutability": "nonpayable",
      "type": "function"
    },
    {
      "inputs": [
        {
          "internalType": "string",
          "name": "name",
          "type": "string"
        }
      ],
      "name": "setName",
      "outputs": [],
      "stateMutability": "nonpayable",
      "type": "function"
    },
    {
      "inputs": [
        {
          "internalType": "address",
          "name": "treasury",
          "type": "address"
        }
      ],
      "name": "setTreasuryAddress",
      "outputs": [],
      "stateMutability": "nonpayable",
      "type": "function"
    },
    {
      "inputs": [
        {
          "internalType": "bytes4",
          "name": "interfaceId",
          "type": "bytes4"
        }
      ],
      "name": "supportsInterface",
      "outputs": [
        {
          "internalType": "bool",
          "name": "",
          "type": "bool"
        }
      ],
      "stateMutability": "view",
      "type": "function"
    }
  ],
  "bytecode": "0x608060405234801561001057600080fd5b506119a9806100206000396000f3fe608060405234801561001057600080fd5b506004361061012c5760003560e01c806391d14854116100ad578063cf8197f711610071578063cf8197f71461032f578063d547741f1461034d578063da747bde14610369578063e002460414610385578063e3d24655146103a35761012c565b806391d1485414610279578063a217fddf146102a9578063a230c524146102c7578063c30ff6df146102f7578063c47f0027146103135761012c565b80632f2ff15d116100f45780632f2ff15d146101e95780633408e4701461020557806336568abe146102235780636605bfda1461023f5780636ed5552a1461025b5761012c565b806301ffc9a71461013157806310fe9ae81461016157806317d7de7c1461017f578063231c44ea1461019d578063248a9ca3146101b9575b600080fd5b61014b6004803603810190610146919061102b565b6103bf565b6040516101589190611073565b60405180910390f35b610169610439565b60405161017691906110cf565b60405180910390f35b6101876104d1565b6040516101949190611183565b60405180910390f35b6101b760048036038101906101b2919061126f565b610563565b005b6101d360048036038101906101ce9190611394565b610641565b6040516101e091906113d0565b60405180910390f35b61020360048036038101906101fe91906113eb565b610660565b005b61020d610689565b60405161021a919061143a565b60405180910390f35b61023d600480360381019061023891906113eb565b6106a0565b005b61025960048036038101906102549190611455565b610723565b005b610263610767565b6040516102709190611183565b60405180910390f35b610293600480360381019061028e91906113eb565b6107f9565b6040516102a09190611073565b60405180910390f35b6102b1610863565b6040516102be91906113d0565b60405180910390f35b6102e160048036038101906102dc9190611455565b61086a565b6040516102ee9190611073565b60405180910390f35b610311600480360381019061030c9190611482565b61090f565b005b61032d60048036038101906103289190611482565b610925565b005b61033761093b565b60405161034491906110cf565b60405180910390f35b610367600480360381019061036291906113eb565b610965565b005b610383600480360381019061037e9190611455565b61098e565b005b61038d6109d2565b60405161039a91906110cf565b60405180910390f35b6103bd60048036038101906103b891906114cf565b6109fc565b005b60007f7965db0b000000000000000000000000000000000000000000000000000000007bffffffffffffffffffffffffffffffffffffffffffffffffffffffff1916827bffffffffffffffffffffffffffffffffffffffffffffffffffffffff19161480610432575061043182610a1a565b5b9050919050565b6000600560009054906101000a900473ffffffffffffffffffffffffffffffffffffffff1673ffffffffffffffffffffffffffffffffffffffff166310fe9ae86040518163ffffffff1660e01b8152600401602060405180830381865afa1580156104a8573d6000803e3d6000fd5b505050506040513d601f19601f820116820180604052508101906104cc9190611511565b905090565b6060600280546104e09061156d565b80601f016020809104026020016040519081016040528092919081815260200182805461050c9061156d565b80156105595780601f1061052e57610100808354040283529160200191610559565b820191906000526020600020905b81548152906001019060200180831161053c57829003601f168201915b5050505050905090565b88600160146101000a81548160ff021916908360ff16021790555087876002919061058f929190610f26565b508585600391906105a1929190610f26565b508383600491906105b3929190610f26565b5081600560006101000a81548173ffffffffffffffffffffffffffffffffffffffff021916908373ffffffffffffffffffffffffffffffffffffffff16021790555080600660006101000a81548173ffffffffffffffffffffffffffffffffffffffff021916908373ffffffffffffffffffffffffffffffffffffffff160217905550505050505050505050565b6000806000838152602001908152602001600020600101549050919050565b61066982610641565b61067a81610675610a84565b610a8c565b6106848383610b29565b505050565b6000600160149054906101000a900460ff16905090565b6106a8610a84565b73ffffffffffffffffffffffffffffffffffffffff168173ffffffffffffffffffffffffffffffffffffffff1614610715576040517f08c379a000000000000000000000000000000000000000000000000000000000815260040161070c90611610565b60405180910390fd5b61071f8282610c09565b5050565b80600660006101000a81548173ffffffffffffffffffffffffffffffffffffffff021916908373ffffffffffffffffffffffffffffffffffffffff16021790555050565b6060600480546107769061156d565b80601f01602080910402602001604051908101604052809291908181526020018280546107a29061156d565b80156107ef5780601f106107c4576101008083540402835291602001916107ef565b820191906000526020600020905b8154815290600101906020018083116107d257829003601f168201915b5050505050905090565b600080600084815260200190815260200160002060000160008373ffffffffffffffffffffffffffffffffffffffff1673ffffffffffffffffffffffffffffffffffffffff16815260200190815260200160002060009054906101000a900460ff16905092915050565b6000801b81565b6000600560009054906101000a900473ffffffffffffffffffffffffffffffffffffffff1673ffffffffffffffffffffffffffffffffffffffff1663a230c524836040518263ffffffff1660e01b81526004016108c791906110cf565b602060405180830381865afa1580156108e4573d6000803e3d6000fd5b505050506040513d601f19601f82011682018060405250810190610908919061165c565b9050919050565b818160049190610920929190610f26565b505050565b818160029190610936929190610f26565b505050565b6000600560009054906101000a900473ffffffffffffffffffffffffffffffffffffffff16905090565b61096e82610641565b61097f8161097a610a84565b610a8c565b6109898383610c09565b505050565b80600560006101000a81548173ffffffffffffffffffffffffffffffffffffffff021916908373ffffffffffffffffffffffffffffffffffffffff16021790555050565b6000600660009054906101000a900473ffffffffffffffffffffffffffffffffffffffff16905090565b80600160146101000a81548160ff021916908360ff16021790555050565b60007f01ffc9a7000000000000000000000000000000000000000000000000000000007bffffffffffffffffffffffffffffffffffffffffffffffffffffffff1916827bffffffffffffffffffffffffffffffffffffffffffffffffffffffff1916149050919050565b600033905090565b610a9682826107f9565b610b2557610abb8173ffffffffffffffffffffffffffffffffffffffff166014610cea565b610ac98360001c6020610cea565b604051602001610ada92919061175d565b6040516020818303038152906040526040517f08c379a0000000000000000000000000000000000000000000000000000000008152600401610b1c9190611183565b60405180910390fd5b5050565b610b3382826107f9565b610c0557600160008084815260200190815260200160002060000160008373ffffffffffffffffffffffffffffffffffffffff1673ffffffffffffffffffffffffffffffffffffffff16815260200190815260200160002060006101000a81548160ff021916908315150217905550610baa610a84565b73ffffffffffffffffffffffffffffffffffffffff168173ffffffffffffffffffffffffffffffffffffffff16837f2f8788117e7eff1d82e926ec794901d17c78024a50270940304540a733656f0d60405160405180910390a45b5050565b610c1382826107f9565b15610ce657600080600084815260200190815260200160002060000160008373ffffffffffffffffffffffffffffffffffffffff1673ffffffffffffffffffffffffffffffffffffffff16815260200190815260200160002060006101000a81548160ff021916908315150217905550610c8b610a84565b73ffffffffffffffffffffffffffffffffffffffff168173ffffffffffffffffffffffffffffffffffffffff16837ff6391f5c32d9c69d2a47ea670b442974b53935d1edc7fd64eb21e047a839171b60405160405180910390a45b5050565b606060006002836002610cfd91906117d0565b610d07919061182a565b67ffffffffffffffff811115610d2057610d1f611880565b5b6040519080825280601f01601f191660200182016040528015610d525781602001600182028036833780820191505090505b5090507f300000000000000000000000000000000000000000000000000000000000000081600081518110610d8a57610d896118af565b5b60200101907effffffffffffffffffffffffffffffffffffffffffffffffffffffffffffff1916908160001a9053507f780000000000000000000000000000000000000000000000000000000000000081600181518110610dee57610ded6118af565b5b60200101907effffffffffffffffffffffffffffffffffffffffffffffffffffffffffffff1916908160001a90535060006001846002610e2e91906117d0565b610e38919061182a565b90505b6001811115610ed8577f3031323334353637383961626364656600000000000000000000000000000000600f861660108110610e7a57610e796118af565b5b1a60f81b828281518110610e9157610e906118af565b5b60200101907effffffffffffffffffffffffffffffffffffffffffffffffffffffffffffff1916908160001a905350600485901c945080610ed1906118de565b9050610e3b565b5060008414610f1c576040517f08c379a0000000000000000000000000000000000000000000000000000000008152600401610f1390611953565b60405180910390fd5b8091505092915050565b828054610f329061156d565b90600052602060002090601f016020900481019282610f545760008555610f9b565b82601f10610f6d57803560ff1916838001178555610f9b565b82800160010185558215610f9b579182015b82811115610f9a578235825591602001919060010190610f7f565b5b509050610fa89190610fac565b5090565b5b80821115610fc5576000816000905550600101610fad565b5090565b600080fd5b600080fd5b60007fffffffff0000000000000000000000000000000000000000000000000000000082169050919050565b61100881610fd3565b811461101357600080fd5b50565b60008135905061102581610fff565b92915050565b60006020828403121561104157611040610fc9565b5b600061104f84828501611016565b91505092915050565b60008115159050919050565b61106d81611058565b82525050565b60006020820190506110886000830184611064565b92915050565b600073ffffffffffffffffffffffffffffffffffffffff82169050919050565b60006110b98261108e565b9050919050565b6110c9816110ae565b82525050565b60006020820190506110e460008301846110c0565b92915050565b600081519050919050565b600082825260208201905092915050565b60005b83811015611124578082015181840152602081019050611109565b83811115611133576000848401525b50505050565b6000601f19601f8301169050919050565b6000611155826110ea565b61115f81856110f5565b935061116f818560208601611106565b61117881611139565b840191505092915050565b6000602082019050818103600083015261119d818461114a565b905092915050565b600060ff82169050919050565b6111bb816111a5565b81146111c657600080fd5b50565b6000813590506111d8816111b2565b92915050565b600080fd5b600080fd5b600080fd5b60008083601f840112611203576112026111de565b5b8235905067ffffffffffffffff8111156112205761121f6111e3565b5b60208301915083600182028301111561123c5761123b6111e8565b5b9250929050565b61124c816110ae565b811461125757600080fd5b50565b60008135905061126981611243565b92915050565b600080600080600080600080600060c08a8c03121561129157611290610fc9565b5b600061129f8c828d016111c9565b99505060208a013567ffffffffffffffff8111156112c0576112bf610fce565b5b6112cc8c828d016111ed565b985098505060408a013567ffffffffffffffff8111156112ef576112ee610fce565b5b6112fb8c828d016111ed565b965096505060608a013567ffffffffffffffff81111561131e5761131d610fce565b5b61132a8c828d016111ed565b9450945050608061133d8c828d0161125a565b92505060a061134e8c828d0161125a565b9150509295985092959850929598565b6000819050919050565b6113718161135e565b811461137c57600080fd5b50565b60008135905061138e81611368565b92915050565b6000602082840312156113aa576113a9610fc9565b5b60006113b88482850161137f565b91505092915050565b6113ca8161135e565b82525050565b60006020820190506113e560008301846113c1565b92915050565b6000806040838503121561140257611401610fc9565b5b60006114108582860161137f565b92505060206114218582860161125a565b9150509250929050565b611434816111a5565b82525050565b600060208201905061144f600083018461142b565b92915050565b60006020828403121561146b5761146a610fc9565b5b60006114798482850161125a565b91505092915050565b6000806020838503121561149957611498610fc9565b5b600083013567ffffffffffffffff8111156114b7576114b6610fce565b5b6114c3858286016111ed565b92509250509250929050565b6000602082840312156114e5576114e4610fc9565b5b60006114f3848285016111c9565b91505092915050565b60008151905061150b81611243565b92915050565b60006020828403121561152757611526610fc9565b5b6000611535848285016114fc565b91505092915050565b7f4e487b7100000000000000000000000000000000000000000000000000000000600052602260045260246000fd5b6000600282049050600182168061158557607f821691505b6020821081036115985761159761153e565b5b50919050565b7f416363657373436f6e74726f6c3a2063616e206f6e6c792072656e6f756e636560008201527f20726f6c657320666f722073656c660000000000000000000000000000000000602082015250565b60006115fa602f836110f5565b91506116058261159e565b604082019050919050565b60006020820190508181036000830152611629816115ed565b9050919050565b61163981611058565b811461164457600080fd5b50565b60008151905061165681611630565b92915050565b60006020828403121561167257611671610fc9565b5b600061168084828501611647565b91505092915050565b600081905092915050565b7f416363657373436f6e74726f6c3a206163636f756e7420000000000000000000600082015250565b60006116ca601783611689565b91506116d582611694565b601782019050919050565b60006116eb826110ea565b6116f58185611689565b9350611705818560208601611106565b80840191505092915050565b7f206973206d697373696e6720726f6c6520000000000000000000000000000000600082015250565b6000611747601183611689565b915061175282611711565b601182019050919050565b6000611768826116bd565b915061177482856116e0565b915061177f8261173a565b915061178b82846116e0565b91508190509392505050565b6000819050919050565b7f4e487b7100000000000000000000000000000000000000000000000000000000600052601160045260246000fd5b60006117db82611797565b91506117e683611797565b9250817fffffffffffffffffffffffffffffffffffffffffffffffffffffffffffffffff048311821515161561181f5761181e6117a1565b5b828202905092915050565b600061183582611797565b915061184083611797565b9250827fffffffffffffffffffffffffffffffffffffffffffffffffffffffffffffffff03821115611875576118746117a1565b5b828201905092915050565b7f4e487b7100000000000000000000000000000000000000000000000000000000600052604160045260246000fd5b7f4e487b7100000000000000000000000000000000000000000000000000000000600052603260045260246000fd5b60006118e982611797565b9150600082036118fc576118fb6117a1565b5b600182039050919050565b7f537472696e67733a20686578206c656e67746820696e73756666696369656e74600082015250565b600061193d6020836110f5565b915061194882611907565b602082019050919050565b6000602082019050818103600083015261196c81611930565b905091905056fea2646970667358221220a61f4d6fe330796d845248d17a8641d5744cdfb330cb0efb2bf946871cb2b31364736f6c634300080d0033",
  "linkReferences": {},
  "deployedLinkReferences": {}
}