{
  "_format": "hh-sol-artifact-1",
  "contractName": "DAOProxy",
  "sourceName": "contracts/dao/DAOProxy.sol",
  "abi": [
    {
      "anonymous": false,
      "inputs": [
        {
          "indexed": true,
          "internalType": "bytes32",
          "name": "role",
          "type": "bytes32"
        },
        {
          "indexed": true,
          "internalType": "bytes32",
          "name": "previousAdminRole",
          "type": "bytes32"
        },
        {
          "indexed": true,
          "internalType": "bytes32",
          "name": "newAdminRole",
          "type": "bytes32"
        }
      ],
      "name": "RoleAdminChanged",
      "type": "event"
    },
    {
      "anonymous": false,
      "inputs": [
        {
          "indexed": true,
          "internalType": "bytes32",
          "name": "role",
          "type": "bytes32"
        },
        {
          "indexed": true,
          "internalType": "address",
          "name": "account",
          "type": "address"
        },
        {
          "indexed": true,
          "internalType": "address",
          "name": "sender",
          "type": "address"
        }
      ],
      "name": "RoleGranted",
      "type": "event"
    },
    {
      "anonymous": false,
      "inputs": [
        {
          "indexed": true,
          "internalType": "bytes32",
          "name": "role",
          "type": "bytes32"
        },
        {
          "indexed": true,
          "internalType": "address",
          "name": "account",
          "type": "address"
        },
        {
          "indexed": true,
          "internalType": "address",
          "name": "sender",
          "type": "address"
        }
      ],
      "name": "RoleRevoked",
      "type": "event"
    },
    {
      "inputs": [],
      "name": "DEFAULT_ADMIN_ROLE",
      "outputs": [
        {
          "internalType": "bytes32",
          "name": "",
          "type": "bytes32"
        }
      ],
      "stateMutability": "view",
      "type": "function"
    },
    {
      "inputs": [],
      "name": "getChainId",
      "outputs": [
        {
          "internalType": "uint8",
          "name": "",
          "type": "uint8"
        }
      ],
      "stateMutability": "view",
      "type": "function"
    },
    {
      "inputs": [],
      "name": "getLogoURI",
      "outputs": [
        {
          "internalType": "string",
          "name": "",
          "type": "string"
        }
      ],
      "stateMutability": "view",
      "type": "function"
    },
    {
      "inputs": [],
      "name": "getMembershipModuleAddress",
      "outputs": [
        {
          "internalType": "address",
          "name": "",
          "type": "address"
        }
      ],
      "stateMutability": "view",
      "type": "function"
    },
    {
      "inputs": [],
      "name": "getName",
      "outputs": [
        {
          "internalType": "string",
          "name": "",
          "type": "string"
        }
      ],
      "stateMutability": "view",
      "type": "function"
    },
    {
      "inputs": [
        {
          "internalType": "bytes32",
          "name": "role",
          "type": "bytes32"
        }
      ],
      "name": "getRoleAdmin",
      "outputs": [
        {
          "internalType": "bytes32",
          "name": "",
          "type": "bytes32"
        }
      ],
      "stateMutability": "view",
      "type": "function"
    },
    {
      "inputs": [],
      "name": "getTreasuryAddress",
      "outputs": [
        {
          "internalType": "address",
          "name": "",
          "type": "address"
        }
      ],
      "stateMutability": "view",
      "type": "function"
    },
    {
      "inputs": [
        {
          "internalType": "bytes32",
          "name": "role",
          "type": "bytes32"
        },
        {
          "internalType": "address",
          "name": "account",
          "type": "address"
        }
      ],
      "name": "grantRole",
      "outputs": [],
      "stateMutability": "nonpayable",
      "type": "function"
    },
    {
      "inputs": [
        {
          "internalType": "bytes32",
          "name": "role",
          "type": "bytes32"
        },
        {
          "internalType": "address",
          "name": "account",
          "type": "address"
        }
      ],
      "name": "hasRole",
      "outputs": [
        {
          "internalType": "bool",
          "name": "",
          "type": "bool"
        }
      ],
      "stateMutability": "view",
      "type": "function"
    },
    {
      "inputs": [
        {
          "internalType": "uint8",
          "name": "chainId",
          "type": "uint8"
        },
        {
          "internalType": "string",
          "name": "name",
          "type": "string"
        },
        {
          "internalType": "string",
          "name": "description",
          "type": "string"
        },
        {
          "internalType": "string",
          "name": "logoURI",
          "type": "string"
        },
        {
          "internalType": "address",
          "name": "membershipModule",
          "type": "address"
        },
        {
          "internalType": "address",
          "name": "treasury",
          "type": "address"
        }
      ],
      "name": "initialize",
      "outputs": [],
      "stateMutability": "nonpayable",
      "type": "function"
    },
    {
      "inputs": [
        {
          "internalType": "address",
          "name": "addr",
          "type": "address"
        }
      ],
      "name": "isMember",
      "outputs": [
        {
          "internalType": "bool",
          "name": "",
          "type": "bool"
        }
      ],
      "stateMutability": "view",
      "type": "function"
    },
    {
      "inputs": [
        {
          "internalType": "bytes32",
          "name": "role",
          "type": "bytes32"
        },
        {
          "internalType": "address",
          "name": "account",
          "type": "address"
        }
      ],
      "name": "renounceRole",
      "outputs": [],
      "stateMutability": "nonpayable",
      "type": "function"
    },
    {
      "inputs": [
        {
          "internalType": "bytes32",
          "name": "role",
          "type": "bytes32"
        },
        {
          "internalType": "address",
          "name": "account",
          "type": "address"
        }
      ],
      "name": "revokeRole",
      "outputs": [],
      "stateMutability": "nonpayable",
      "type": "function"
    },
    {
      "inputs": [
        {
          "internalType": "uint8",
          "name": "chainId",
          "type": "uint8"
        }
      ],
      "name": "setChainId",
      "outputs": [],
      "stateMutability": "nonpayable",
      "type": "function"
    },
    {
      "inputs": [
        {
          "internalType": "string",
          "name": "logoURI",
          "type": "string"
        }
      ],
      "name": "setLogoURI",
      "outputs": [],
      "stateMutability": "nonpayable",
      "type": "function"
    },
    {
      "inputs": [
        {
          "internalType": "address",
          "name": "membershipModule",
          "type": "address"
        }
      ],
      "name": "setMembershipModuleAddress",
      "outputs": [],
      "stateMutability": "nonpayable",
      "type": "function"
    },
    {
      "inputs": [
        {
          "internalType": "string",
          "name": "name",
          "type": "string"
        }
      ],
      "name": "setName",
      "outputs": [],
      "stateMutability": "nonpayable",
      "type": "function"
    },
    {
      "inputs": [
        {
          "internalType": "address",
          "name": "treasury",
          "type": "address"
        }
      ],
      "name": "setTreasuryAddress",
      "outputs": [],
      "stateMutability": "nonpayable",
      "type": "function"
    },
    {
      "inputs": [
        {
          "internalType": "bytes4",
          "name": "interfaceId",
          "type": "bytes4"
        }
      ],
      "name": "supportsInterface",
      "outputs": [
        {
          "internalType": "bool",
          "name": "",
          "type": "bool"
        }
      ],
      "stateMutability": "view",
      "type": "function"
    }
  ],
  "bytecode": "0x608060405234801561001057600080fd5b506118a6806100206000396000f3fe608060405234801561001057600080fd5b50600436106101215760003560e01c806391d14854116100ad578063cf8197f711610071578063cf8197f714610306578063d547741f14610324578063da747bde14610340578063e00246041461035c578063e3d246551461037a57610121565b806391d1485414610250578063a217fddf14610280578063a230c5241461029e578063c30ff6df146102ce578063c47f0027146102ea57610121565b80632f2ff15d116100f45780632f2ff15d146101c05780633408e470146101dc57806336568abe146101fa5780636605bfda146102165780636ed5552a1461023257610121565b806301ffc9a71461012657806317d7de7c14610156578063231c44ea14610174578063248a9ca314610190575b600080fd5b610140600480360381019061013b9190610f6a565b610396565b60405161014d9190610fb2565b60405180910390f35b61015e610410565b60405161016b9190611066565b60405180910390f35b61018e60048036038101906101899190611184565b6104a2565b005b6101aa60048036038101906101a591906112a9565b610580565b6040516101b791906112e5565b60405180910390f35b6101da60048036038101906101d59190611300565b61059f565b005b6101e46105c8565b6040516101f1919061134f565b60405180910390f35b610214600480360381019061020f9190611300565b6105df565b005b610230600480360381019061022b919061136a565b610662565b005b61023a6106a6565b6040516102479190611066565b60405180910390f35b61026a60048036038101906102659190611300565b610738565b6040516102779190610fb2565b60405180910390f35b6102886107a2565b60405161029591906112e5565b60405180910390f35b6102b860048036038101906102b3919061136a565b6107a9565b6040516102c59190610fb2565b60405180910390f35b6102e860048036038101906102e39190611397565b61084e565b005b61030460048036038101906102ff9190611397565b610864565b005b61030e61087a565b60405161031b91906113f3565b60405180910390f35b61033e60048036038101906103399190611300565b6108a4565b005b61035a6004803603810190610355919061136a565b6108cd565b005b610364610911565b60405161037191906113f3565b60405180910390f35b610394600480360381019061038f919061140e565b61093b565b005b60007f7965db0b000000000000000000000000000000000000000000000000000000007bffffffffffffffffffffffffffffffffffffffffffffffffffffffff1916827bffffffffffffffffffffffffffffffffffffffffffffffffffffffff19161480610409575061040882610959565b5b9050919050565b60606002805461041f9061146a565b80601f016020809104026020016040519081016040528092919081815260200182805461044b9061146a565b80156104985780601f1061046d57610100808354040283529160200191610498565b820191906000526020600020905b81548152906001019060200180831161047b57829003601f168201915b5050505050905090565b88600160146101000a81548160ff021916908360ff1602179055508787600291906104ce929190610e65565b508585600391906104e0929190610e65565b508383600491906104f2929190610e65565b5081600560006101000a81548173ffffffffffffffffffffffffffffffffffffffff021916908373ffffffffffffffffffffffffffffffffffffffff16021790555080600660006101000a81548173ffffffffffffffffffffffffffffffffffffffff021916908373ffffffffffffffffffffffffffffffffffffffff160217905550505050505050505050565b6000806000838152602001908152602001600020600101549050919050565b6105a882610580565b6105b9816105b46109c3565b6109cb565b6105c38383610a68565b505050565b6000600160149054906101000a900460ff16905090565b6105e76109c3565b73ffffffffffffffffffffffffffffffffffffffff168173ffffffffffffffffffffffffffffffffffffffff1614610654576040517f08c379a000000000000000000000000000000000000000000000000000000000815260040161064b9061150d565b60405180910390fd5b61065e8282610b48565b5050565b80600660006101000a81548173ffffffffffffffffffffffffffffffffffffffff021916908373ffffffffffffffffffffffffffffffffffffffff16021790555050565b6060600480546106b59061146a565b80601f01602080910402602001604051908101604052809291908181526020018280546106e19061146a565b801561072e5780601f106107035761010080835404028352916020019161072e565b820191906000526020600020905b81548152906001019060200180831161071157829003601f168201915b5050505050905090565b600080600084815260200190815260200160002060000160008373ffffffffffffffffffffffffffffffffffffffff1673ffffffffffffffffffffffffffffffffffffffff16815260200190815260200160002060009054906101000a900460ff16905092915050565b6000801b81565b6000600560009054906101000a900473ffffffffffffffffffffffffffffffffffffffff1673ffffffffffffffffffffffffffffffffffffffff1663a230c524836040518263ffffffff1660e01b815260040161080691906113f3565b602060405180830381865afa158015610823573d6000803e3d6000fd5b505050506040513d601f19601f820116820180604052508101906108479190611559565b9050919050565b81816004919061085f929190610e65565b505050565b818160029190610875929190610e65565b505050565b6000600560009054906101000a900473ffffffffffffffffffffffffffffffffffffffff16905090565b6108ad82610580565b6108be816108b96109c3565b6109cb565b6108c88383610b48565b505050565b80600560006101000a81548173ffffffffffffffffffffffffffffffffffffffff021916908373ffffffffffffffffffffffffffffffffffffffff16021790555050565b6000600660009054906101000a900473ffffffffffffffffffffffffffffffffffffffff16905090565b80600160146101000a81548160ff021916908360ff16021790555050565b60007f01ffc9a7000000000000000000000000000000000000000000000000000000007bffffffffffffffffffffffffffffffffffffffffffffffffffffffff1916827bffffffffffffffffffffffffffffffffffffffffffffffffffffffff1916149050919050565b600033905090565b6109d58282610738565b610a64576109fa8173ffffffffffffffffffffffffffffffffffffffff166014610c29565b610a088360001c6020610c29565b604051602001610a1992919061165a565b6040516020818303038152906040526040517f08c379a0000000000000000000000000000000000000000000000000000000008152600401610a5b9190611066565b60405180910390fd5b5050565b610a728282610738565b610b4457600160008084815260200190815260200160002060000160008373ffffffffffffffffffffffffffffffffffffffff1673ffffffffffffffffffffffffffffffffffffffff16815260200190815260200160002060006101000a81548160ff021916908315150217905550610ae96109c3565b73ffffffffffffffffffffffffffffffffffffffff168173ffffffffffffffffffffffffffffffffffffffff16837f2f8788117e7eff1d82e926ec794901d17c78024a50270940304540a733656f0d60405160405180910390a45b5050565b610b528282610738565b15610c2557600080600084815260200190815260200160002060000160008373ffffffffffffffffffffffffffffffffffffffff1673ffffffffffffffffffffffffffffffffffffffff16815260200190815260200160002060006101000a81548160ff021916908315150217905550610bca6109c3565b73ffffffffffffffffffffffffffffffffffffffff168173ffffffffffffffffffffffffffffffffffffffff16837ff6391f5c32d9c69d2a47ea670b442974b53935d1edc7fd64eb21e047a839171b60405160405180910390a45b5050565b606060006002836002610c3c91906116cd565b610c469190611727565b67ffffffffffffffff811115610c5f57610c5e61177d565b5b6040519080825280601f01601f191660200182016040528015610c915781602001600182028036833780820191505090505b5090507f300000000000000000000000000000000000000000000000000000000000000081600081518110610cc957610cc86117ac565b5b60200101907effffffffffffffffffffffffffffffffffffffffffffffffffffffffffffff1916908160001a9053507f780000000000000000000000000000000000000000000000000000000000000081600181518110610d2d57610d2c6117ac565b5b60200101907effffffffffffffffffffffffffffffffffffffffffffffffffffffffffffff1916908160001a90535060006001846002610d6d91906116cd565b610d779190611727565b90505b6001811115610e17577f3031323334353637383961626364656600000000000000000000000000000000600f861660108110610db957610db86117ac565b5b1a60f81b828281518110610dd057610dcf6117ac565b5b60200101907effffffffffffffffffffffffffffffffffffffffffffffffffffffffffffff1916908160001a905350600485901c945080610e10906117db565b9050610d7a565b5060008414610e5b576040517f08c379a0000000000000000000000000000000000000000000000000000000008152600401610e5290611850565b60405180910390fd5b8091505092915050565b828054610e719061146a565b90600052602060002090601f016020900481019282610e935760008555610eda565b82601f10610eac57803560ff1916838001178555610eda565b82800160010185558215610eda579182015b82811115610ed9578235825591602001919060010190610ebe565b5b509050610ee79190610eeb565b5090565b5b80821115610f04576000816000905550600101610eec565b5090565b600080fd5b600080fd5b60007fffffffff0000000000000000000000000000000000000000000000000000000082169050919050565b610f4781610f12565b8114610f5257600080fd5b50565b600081359050610f6481610f3e565b92915050565b600060208284031215610f8057610f7f610f08565b5b6000610f8e84828501610f55565b91505092915050565b60008115159050919050565b610fac81610f97565b82525050565b6000602082019050610fc76000830184610fa3565b92915050565b600081519050919050565b600082825260208201905092915050565b60005b83811015611007578082015181840152602081019050610fec565b83811115611016576000848401525b50505050565b6000601f19601f8301169050919050565b600061103882610fcd565b6110428185610fd8565b9350611052818560208601610fe9565b61105b8161101c565b840191505092915050565b60006020820190508181036000830152611080818461102d565b905092915050565b600060ff82169050919050565b61109e81611088565b81146110a957600080fd5b50565b6000813590506110bb81611095565b92915050565b600080fd5b600080fd5b600080fd5b60008083601f8401126110e6576110e56110c1565b5b8235905067ffffffffffffffff811115611103576111026110c6565b5b60208301915083600182028301111561111f5761111e6110cb565b5b9250929050565b600073ffffffffffffffffffffffffffffffffffffffff82169050919050565b600061115182611126565b9050919050565b61116181611146565b811461116c57600080fd5b50565b60008135905061117e81611158565b92915050565b600080600080600080600080600060c08a8c0312156111a6576111a5610f08565b5b60006111b48c828d016110ac565b99505060208a013567ffffffffffffffff8111156111d5576111d4610f0d565b5b6111e18c828d016110d0565b985098505060408a013567ffffffffffffffff81111561120457611203610f0d565b5b6112108c828d016110d0565b965096505060608a013567ffffffffffffffff81111561123357611232610f0d565b5b61123f8c828d016110d0565b945094505060806112528c828d0161116f565b92505060a06112638c828d0161116f565b9150509295985092959850929598565b6000819050919050565b61128681611273565b811461129157600080fd5b50565b6000813590506112a38161127d565b92915050565b6000602082840312156112bf576112be610f08565b5b60006112cd84828501611294565b91505092915050565b6112df81611273565b82525050565b60006020820190506112fa60008301846112d6565b92915050565b6000806040838503121561131757611316610f08565b5b600061132585828601611294565b92505060206113368582860161116f565b9150509250929050565b61134981611088565b82525050565b60006020820190506113646000830184611340565b92915050565b6000602082840312156113805761137f610f08565b5b600061138e8482850161116f565b91505092915050565b600080602083850312156113ae576113ad610f08565b5b600083013567ffffffffffffffff8111156113cc576113cb610f0d565b5b6113d8858286016110d0565b92509250509250929050565b6113ed81611146565b82525050565b600060208201905061140860008301846113e4565b92915050565b60006020828403121561142457611423610f08565b5b6000611432848285016110ac565b91505092915050565b7f4e487b7100000000000000000000000000000000000000000000000000000000600052602260045260246000fd5b6000600282049050600182168061148257607f821691505b6020821081036114955761149461143b565b5b50919050565b7f416363657373436f6e74726f6c3a2063616e206f6e6c792072656e6f756e636560008201527f20726f6c657320666f722073656c660000000000000000000000000000000000602082015250565b60006114f7602f83610fd8565b91506115028261149b565b604082019050919050565b60006020820190508181036000830152611526816114ea565b9050919050565b61153681610f97565b811461154157600080fd5b50565b6000815190506115538161152d565b92915050565b60006020828403121561156f5761156e610f08565b5b600061157d84828501611544565b91505092915050565b600081905092915050565b7f416363657373436f6e74726f6c3a206163636f756e7420000000000000000000600082015250565b60006115c7601783611586565b91506115d282611591565b601782019050919050565b60006115e882610fcd565b6115f28185611586565b9350611602818560208601610fe9565b80840191505092915050565b7f206973206d697373696e6720726f6c6520000000000000000000000000000000600082015250565b6000611644601183611586565b915061164f8261160e565b601182019050919050565b6000611665826115ba565b915061167182856115dd565b915061167c82611637565b915061168882846115dd565b91508190509392505050565b6000819050919050565b7f4e487b7100000000000000000000000000000000000000000000000000000000600052601160045260246000fd5b60006116d882611694565b91506116e383611694565b9250817fffffffffffffffffffffffffffffffffffffffffffffffffffffffffffffffff048311821515161561171c5761171b61169e565b5b828202905092915050565b600061173282611694565b915061173d83611694565b9250827fffffffffffffffffffffffffffffffffffffffffffffffffffffffffffffffff038211156117725761177161169e565b5b828201905092915050565b7f4e487b7100000000000000000000000000000000000000000000000000000000600052604160045260246000fd5b7f4e487b7100000000000000000000000000000000000000000000000000000000600052603260045260246000fd5b60006117e682611694565b9150600082036117f9576117f861169e565b5b600182039050919050565b7f537472696e67733a20686578206c656e67746820696e73756666696369656e74600082015250565b600061183a602083610fd8565b915061184582611804565b602082019050919050565b600060208201905081810360008301526118698161182d565b905091905056fea2646970667358221220d17bc1b2546fcde7ba078d1399e9072ea86b02cf14a876d9c706e19e3f65409564736f6c634300080d0033",
  "linkReferences": {},
  "deployedLinkReferences": {}
}