{
  "_format": "hh-sol-artifact-1",
  "contractName": "DAOProxyFactory",
  "sourceName": "contracts/factories/DAOProxyFactory.sol",
  "abi": [
    {
      "inputs": [
        {
          "internalType": "address",
          "name": "hub",
          "type": "address"
        }
      ],
      "stateMutability": "nonpayable",
      "type": "constructor"
    },
    {
      "anonymous": false,
      "inputs": [
        {
          "indexed": true,
          "internalType": "bytes32",
          "name": "role",
          "type": "bytes32"
        },
        {
          "indexed": true,
          "internalType": "bytes32",
          "name": "previousAdminRole",
          "type": "bytes32"
        },
        {
          "indexed": true,
          "internalType": "bytes32",
          "name": "newAdminRole",
          "type": "bytes32"
        }
      ],
      "name": "RoleAdminChanged",
      "type": "event"
    },
    {
      "anonymous": false,
      "inputs": [
        {
          "indexed": true,
          "internalType": "bytes32",
          "name": "role",
          "type": "bytes32"
        },
        {
          "indexed": true,
          "internalType": "address",
          "name": "account",
          "type": "address"
        },
        {
          "indexed": true,
          "internalType": "address",
          "name": "sender",
          "type": "address"
        }
      ],
      "name": "RoleGranted",
      "type": "event"
    },
    {
      "anonymous": false,
      "inputs": [
        {
          "indexed": true,
          "internalType": "bytes32",
          "name": "role",
          "type": "bytes32"
        },
        {
          "indexed": true,
          "internalType": "address",
          "name": "account",
          "type": "address"
        },
        {
          "indexed": true,
          "internalType": "address",
          "name": "sender",
          "type": "address"
        }
      ],
      "name": "RoleRevoked",
      "type": "event"
    },
    {
      "inputs": [],
      "name": "DEFAULT_ADMIN_ROLE",
      "outputs": [
        {
          "internalType": "bytes32",
          "name": "",
          "type": "bytes32"
        }
      ],
      "stateMutability": "view",
      "type": "function"
    },
    {
      "inputs": [
        {
          "internalType": "bytes32",
          "name": "role",
          "type": "bytes32"
        }
      ],
      "name": "getRoleAdmin",
      "outputs": [
        {
          "internalType": "bytes32",
          "name": "",
          "type": "bytes32"
        }
      ],
      "stateMutability": "view",
      "type": "function"
    },
    {
      "inputs": [
        {
          "internalType": "bytes32",
          "name": "role",
          "type": "bytes32"
        },
        {
          "internalType": "address",
          "name": "account",
          "type": "address"
        }
      ],
      "name": "grantRole",
      "outputs": [],
      "stateMutability": "nonpayable",
      "type": "function"
    },
    {
      "inputs": [
        {
          "internalType": "bytes32",
          "name": "role",
          "type": "bytes32"
        },
        {
          "internalType": "address",
          "name": "account",
          "type": "address"
        }
      ],
      "name": "hasRole",
      "outputs": [
        {
          "internalType": "bool",
          "name": "",
          "type": "bool"
        }
      ],
      "stateMutability": "view",
      "type": "function"
    },
    {
      "inputs": [
        {
          "internalType": "uint8",
          "name": "chainId",
          "type": "uint8"
        },
        {
          "internalType": "string",
          "name": "name",
          "type": "string"
        },
        {
          "internalType": "string",
          "name": "description",
          "type": "string"
        },
        {
          "internalType": "string",
          "name": "logoURI",
          "type": "string"
        },
        {
          "internalType": "enum DAOProxyFactory.MembershipModuleType",
          "name": "membershipModuleType",
          "type": "uint8"
        },
        {
          "internalType": "address",
          "name": "tokenAddress",
          "type": "address"
        },
        {
          "internalType": "address",
          "name": "treasury",
          "type": "address"
        }
      ],
      "name": "newDAOProxy",
      "outputs": [
        {
          "internalType": "address",
          "name": "",
          "type": "address"
        }
      ],
      "stateMutability": "nonpayable",
      "type": "function"
    },
    {
      "inputs": [
        {
          "internalType": "bytes32",
          "name": "role",
          "type": "bytes32"
        },
        {
          "internalType": "address",
          "name": "account",
          "type": "address"
        }
      ],
      "name": "renounceRole",
      "outputs": [],
      "stateMutability": "nonpayable",
      "type": "function"
    },
    {
      "inputs": [
        {
          "internalType": "bytes32",
          "name": "role",
          "type": "bytes32"
        },
        {
          "internalType": "address",
          "name": "account",
          "type": "address"
        }
      ],
      "name": "revokeRole",
      "outputs": [],
      "stateMutability": "nonpayable",
      "type": "function"
    },
    {
      "inputs": [
        {
          "internalType": "bytes4",
          "name": "interfaceId",
          "type": "bytes4"
        }
      ],
      "name": "supportsInterface",
      "outputs": [
        {
          "internalType": "bool",
          "name": "",
          "type": "bool"
        }
      ],
      "stateMutability": "view",
      "type": "function"
    }
  ],
  "bytecode": "0x60806040523480156200001157600080fd5b5060405162005422380380620054228339818101604052810190620000379190620000e9565b80600160006101000a81548173ffffffffffffffffffffffffffffffffffffffff021916908373ffffffffffffffffffffffffffffffffffffffff160217905550506200011b565b600080fd5b600073ffffffffffffffffffffffffffffffffffffffff82169050919050565b6000620000b18262000084565b9050919050565b620000c381620000a4565b8114620000cf57600080fd5b50565b600081519050620000e381620000b8565b92915050565b6000602082840312156200010257620001016200007f565b5b60006200011284828501620000d2565b91505092915050565b6152f7806200012b6000396000f3fe60806040523480156200001157600080fd5b5060043610620000945760003560e01c806391d14854116200006357806391d148541462000145578063a217fddf146200017b578063b197bf91146200019d578063d547741f14620001d35762000094565b806301ffc9a71462000099578063248a9ca314620000cf5780632f2ff15d146200010557806336568abe1462000125575b600080fd5b620000b76004803603810190620000b1919062000bf5565b620001f3565b604051620000c6919062000c44565b60405180910390f35b620000ed6004803603810190620000e7919062000c9c565b62000270565b604051620000fc919062000cdf565b60405180910390f35b6200012360048036038101906200011d919062000d61565b6200028f565b005b6200014360048036038101906200013d919062000d61565b620002c0565b005b6200016360048036038101906200015d919062000d61565b6200034a565b60405162000172919062000c44565b60405180910390f35b62000185620003b4565b60405162000194919062000cdf565b60405180910390f35b620001bb6004803603810190620001b5919062000e7c565b620003bb565b604051620001ca919062000faa565b60405180910390f35b620001f16004803603810190620001eb919062000d61565b620005f3565b005b60007f7965db0b000000000000000000000000000000000000000000000000000000007bffffffffffffffffffffffffffffffffffffffffffffffffffffffff1916827bffffffffffffffffffffffffffffffffffffffffffffffffffffffff19161480620002695750620002688262000624565b5b9050919050565b6000806000838152602001908152602001600020600101549050919050565b6200029a8262000270565b620002af81620002a96200068e565b62000696565b620002bb83836200073e565b505050565b620002ca6200068e565b73ffffffffffffffffffffffffffffffffffffffff168173ffffffffffffffffffffffffffffffffffffffff16146200033a576040517f08c379a000000000000000000000000000000000000000000000000000000000815260040162000331906200104e565b60405180910390fd5b62000346828262000823565b5050565b600080600084815260200190815260200160002060000160008373ffffffffffffffffffffffffffffffffffffffff1673ffffffffffffffffffffffffffffffffffffffff16815260200190815260200160002060009054906101000a900460ff16905092915050565b6000801b81565b600080604051620003cc9062000b64565b604051809103906000f080158015620003e9573d6000803e3d6000fd5b509050600080600181111562000404576200040362001070565b5b8660018111156200041a576200041962001070565b5b036200046157846040516200042f9062000b72565b6200043b919062000faa565b604051809103906000f08015801562000458573d6000803e3d6000fd5b509050620004d0565b60018081111562000477576200047662001070565b5b8660018111156200048d576200048c62001070565b5b03620004cf5784604051620004a29062000b80565b620004ae919062000faa565b604051809103906000f080158015620004cb573d6000803e3d6000fd5b5090505b5b8173ffffffffffffffffffffffffffffffffffffffff1663231c44ea8e8e8e8e8e8e8e898d6040518a63ffffffff1660e01b81526004016200051b9998979695949392919062001103565b600060405180830381600087803b1580156200053657600080fd5b505af11580156200054b573d6000803e3d6000fd5b50505050600160009054906101000a900473ffffffffffffffffffffffffffffffffffffffff1673ffffffffffffffffffffffffffffffffffffffff16632ba369ab836040518263ffffffff1660e01b8152600401620005ac919062000faa565b600060405180830381600087803b158015620005c757600080fd5b505af1158015620005dc573d6000803e3d6000fd5b5050505081925050509a9950505050505050505050565b620005fe8262000270565b62000613816200060d6200068e565b62000696565b6200061f838362000823565b505050565b60007f01ffc9a7000000000000000000000000000000000000000000000000000000007bffffffffffffffffffffffffffffffffffffffffffffffffffffffff1916827bffffffffffffffffffffffffffffffffffffffffffffffffffffffff1916149050919050565b600033905090565b620006a282826200034a565b6200073a57620006ca8173ffffffffffffffffffffffffffffffffffffffff16601462000909565b620006da8360001c602062000909565b604051602001620006ed929190620012ae565b6040516020818303038152906040526040517f08c379a000000000000000000000000000000000000000000000000000000000815260040162000731919062001331565b60405180910390fd5b5050565b6200074a82826200034a565b6200081f57600160008084815260200190815260200160002060000160008373ffffffffffffffffffffffffffffffffffffffff1673ffffffffffffffffffffffffffffffffffffffff16815260200190815260200160002060006101000a81548160ff021916908315150217905550620007c46200068e565b73ffffffffffffffffffffffffffffffffffffffff168173ffffffffffffffffffffffffffffffffffffffff16837f2f8788117e7eff1d82e926ec794901d17c78024a50270940304540a733656f0d60405160405180910390a45b5050565b6200082f82826200034a565b156200090557600080600084815260200190815260200160002060000160008373ffffffffffffffffffffffffffffffffffffffff1673ffffffffffffffffffffffffffffffffffffffff16815260200190815260200160002060006101000a81548160ff021916908315150217905550620008aa6200068e565b73ffffffffffffffffffffffffffffffffffffffff168173ffffffffffffffffffffffffffffffffffffffff16837ff6391f5c32d9c69d2a47ea670b442974b53935d1edc7fd64eb21e047a839171b60405160405180910390a45b5050565b6060600060028360026200091e91906200138e565b6200092a9190620013ef565b67ffffffffffffffff8111156200094657620009456200144c565b5b6040519080825280601f01601f191660200182016040528015620009795781602001600182028036833780820191505090505b5090507f300000000000000000000000000000000000000000000000000000000000000081600081518110620009b457620009b36200147b565b5b60200101907effffffffffffffffffffffffffffffffffffffffffffffffffffffffffffff1916908160001a9053507f78000000000000000000000000000000000000000000000000000000000000008160018151811062000a1b5762000a1a6200147b565b5b60200101907effffffffffffffffffffffffffffffffffffffffffffffffffffffffffffff1916908160001a9053506000600184600262000a5d91906200138e565b62000a699190620013ef565b90505b600181111562000b13577f3031323334353637383961626364656600000000000000000000000000000000600f86166010811062000aaf5762000aae6200147b565b5b1a60f81b82828151811062000ac95762000ac86200147b565b5b60200101907effffffffffffffffffffffffffffffffffffffffffffffffffffffffffffff1916908160001a905350600485901c94508062000b0b90620014aa565b905062000a6c565b506000841462000b5a576040517f08c379a000000000000000000000000000000000000000000000000000000000815260040162000b519062001528565b60405180910390fd5b8091505092915050565b6119c9806200154b83390190565b6111d78062002f1483390190565b6111d780620040eb83390190565b600080fd5b600080fd5b60007fffffffff0000000000000000000000000000000000000000000000000000000082169050919050565b62000bcf8162000b98565b811462000bdb57600080fd5b50565b60008135905062000bef8162000bc4565b92915050565b60006020828403121562000c0e5762000c0d62000b8e565b5b600062000c1e8482850162000bde565b91505092915050565b60008115159050919050565b62000c3e8162000c27565b82525050565b600060208201905062000c5b600083018462000c33565b92915050565b6000819050919050565b62000c768162000c61565b811462000c8257600080fd5b50565b60008135905062000c968162000c6b565b92915050565b60006020828403121562000cb55762000cb462000b8e565b5b600062000cc58482850162000c85565b91505092915050565b62000cd98162000c61565b82525050565b600060208201905062000cf6600083018462000cce565b92915050565b600073ffffffffffffffffffffffffffffffffffffffff82169050919050565b600062000d298262000cfc565b9050919050565b62000d3b8162000d1c565b811462000d4757600080fd5b50565b60008135905062000d5b8162000d30565b92915050565b6000806040838503121562000d7b5762000d7a62000b8e565b5b600062000d8b8582860162000c85565b925050602062000d9e8582860162000d4a565b9150509250929050565b600060ff82169050919050565b62000dc08162000da8565b811462000dcc57600080fd5b50565b60008135905062000de08162000db5565b92915050565b600080fd5b600080fd5b600080fd5b60008083601f84011262000e0e5762000e0d62000de6565b5b8235905067ffffffffffffffff81111562000e2e5762000e2d62000deb565b5b60208301915083600182028301111562000e4d5762000e4c62000df0565b5b9250929050565b6002811062000e6257600080fd5b50565b60008135905062000e768162000e54565b92915050565b60008060008060008060008060008060e08b8d03121562000ea25762000ea162000b8e565b5b600062000eb28d828e0162000dcf565b9a505060208b013567ffffffffffffffff81111562000ed65762000ed562000b93565b5b62000ee48d828e0162000df5565b995099505060408b013567ffffffffffffffff81111562000f0a5762000f0962000b93565b5b62000f188d828e0162000df5565b975097505060608b013567ffffffffffffffff81111562000f3e5762000f3d62000b93565b5b62000f4c8d828e0162000df5565b9550955050608062000f618d828e0162000e65565b93505060a062000f748d828e0162000d4a565b92505060c062000f878d828e0162000d4a565b9150509295989b9194979a5092959850565b62000fa48162000d1c565b82525050565b600060208201905062000fc1600083018462000f99565b92915050565b600082825260208201905092915050565b7f416363657373436f6e74726f6c3a2063616e206f6e6c792072656e6f756e636560008201527f20726f6c657320666f722073656c660000000000000000000000000000000000602082015250565b600062001036602f8362000fc7565b9150620010438262000fd8565b604082019050919050565b60006020820190508181036000830152620010698162001027565b9050919050565b7f4e487b7100000000000000000000000000000000000000000000000000000000600052602160045260246000fd5b620010aa8162000da8565b82525050565b82818337600083830152505050565b6000601f19601f8301169050919050565b6000620010de838562000fc7565b9350620010ed838584620010b0565b620010f883620010bf565b840190509392505050565b600060c0820190506200111a600083018c6200109f565b81810360208301526200112f818a8c620010d0565b905081810360408301526200114681888a620010d0565b905081810360608301526200115d818688620010d0565b90506200116e608083018562000f99565b6200117d60a083018462000f99565b9a9950505050505050505050565b600081905092915050565b7f416363657373436f6e74726f6c3a206163636f756e7420000000000000000000600082015250565b6000620011ce6017836200118b565b9150620011db8262001196565b601782019050919050565b600081519050919050565b60005b8381101562001211578082015181840152602081019050620011f4565b8381111562001221576000848401525b50505050565b60006200123482620011e6565b6200124081856200118b565b935062001252818560208601620011f1565b80840191505092915050565b7f206973206d697373696e6720726f6c6520000000000000000000000000000000600082015250565b6000620012966011836200118b565b9150620012a3826200125e565b601182019050919050565b6000620012bb82620011bf565b9150620012c9828562001227565b9150620012d68262001287565b9150620012e4828462001227565b91508190509392505050565b6000620012fd82620011e6565b62001309818562000fc7565b93506200131b818560208601620011f1565b6200132681620010bf565b840191505092915050565b600060208201905081810360008301526200134d8184620012f0565b905092915050565b6000819050919050565b7f4e487b7100000000000000000000000000000000000000000000000000000000600052601160045260246000fd5b60006200139b8262001355565b9150620013a88362001355565b9250817fffffffffffffffffffffffffffffffffffffffffffffffffffffffffffffffff0483118215151615620013e457620013e36200135f565b5b828202905092915050565b6000620013fc8262001355565b9150620014098362001355565b9250827fffffffffffffffffffffffffffffffffffffffffffffffffffffffffffffffff038211156200144157620014406200135f565b5b828201905092915050565b7f4e487b7100000000000000000000000000000000000000000000000000000000600052604160045260246000fd5b7f4e487b7100000000000000000000000000000000000000000000000000000000600052603260045260246000fd5b6000620014b78262001355565b915060008203620014cd57620014cc6200135f565b5b600182039050919050565b7f537472696e67733a20686578206c656e67746820696e73756666696369656e74600082015250565b60006200151060208362000fc7565b91506200151d82620014d8565b602082019050919050565b60006020820190508181036000830152620015438162001501565b905091905056fe608060405234801561001057600080fd5b506119a9806100206000396000f3fe608060405234801561001057600080fd5b506004361061012c5760003560e01c806391d14854116100ad578063cf8197f711610071578063cf8197f71461032f578063d547741f1461034d578063da747bde14610369578063e002460414610385578063e3d24655146103a35761012c565b806391d1485414610279578063a217fddf146102a9578063a230c524146102c7578063c30ff6df146102f7578063c47f0027146103135761012c565b80632f2ff15d116100f45780632f2ff15d146101e95780633408e4701461020557806336568abe146102235780636605bfda1461023f5780636ed5552a1461025b5761012c565b806301ffc9a71461013157806310fe9ae81461016157806317d7de7c1461017f578063231c44ea1461019d578063248a9ca3146101b9575b600080fd5b61014b6004803603810190610146919061102b565b6103bf565b6040516101589190611073565b60405180910390f35b610169610439565b60405161017691906110cf565b60405180910390f35b6101876104d1565b6040516101949190611183565b60405180910390f35b6101b760048036038101906101b2919061126f565b610563565b005b6101d360048036038101906101ce9190611394565b610641565b6040516101e091906113d0565b60405180910390f35b61020360048036038101906101fe91906113eb565b610660565b005b61020d610689565b60405161021a919061143a565b60405180910390f35b61023d600480360381019061023891906113eb565b6106a0565b005b61025960048036038101906102549190611455565b610723565b005b610263610767565b6040516102709190611183565b60405180910390f35b610293600480360381019061028e91906113eb565b6107f9565b6040516102a09190611073565b60405180910390f35b6102b1610863565b6040516102be91906113d0565b60405180910390f35b6102e160048036038101906102dc9190611455565b61086a565b6040516102ee9190611073565b60405180910390f35b610311600480360381019061030c9190611482565b61090f565b005b61032d60048036038101906103289190611482565b610925565b005b61033761093b565b60405161034491906110cf565b60405180910390f35b610367600480360381019061036291906113eb565b610965565b005b610383600480360381019061037e9190611455565b61098e565b005b61038d6109d2565b60405161039a91906110cf565b60405180910390f35b6103bd60048036038101906103b891906114cf565b6109fc565b005b60007f7965db0b000000000000000000000000000000000000000000000000000000007bffffffffffffffffffffffffffffffffffffffffffffffffffffffff1916827bffffffffffffffffffffffffffffffffffffffffffffffffffffffff19161480610432575061043182610a1a565b5b9050919050565b6000600560009054906101000a900473ffffffffffffffffffffffffffffffffffffffff1673ffffffffffffffffffffffffffffffffffffffff166310fe9ae86040518163ffffffff1660e01b8152600401602060405180830381865afa1580156104a8573d6000803e3d6000fd5b505050506040513d601f19601f820116820180604052508101906104cc9190611511565b905090565b6060600280546104e09061156d565b80601f016020809104026020016040519081016040528092919081815260200182805461050c9061156d565b80156105595780601f1061052e57610100808354040283529160200191610559565b820191906000526020600020905b81548152906001019060200180831161053c57829003601f168201915b5050505050905090565b88600160146101000a81548160ff021916908360ff16021790555087876002919061058f929190610f26565b508585600391906105a1929190610f26565b508383600491906105b3929190610f26565b5081600560006101000a81548173ffffffffffffffffffffffffffffffffffffffff021916908373ffffffffffffffffffffffffffffffffffffffff16021790555080600660006101000a81548173ffffffffffffffffffffffffffffffffffffffff021916908373ffffffffffffffffffffffffffffffffffffffff160217905550505050505050505050565b6000806000838152602001908152602001600020600101549050919050565b61066982610641565b61067a81610675610a84565b610a8c565b6106848383610b29565b505050565b6000600160149054906101000a900460ff16905090565b6106a8610a84565b73ffffffffffffffffffffffffffffffffffffffff168173ffffffffffffffffffffffffffffffffffffffff1614610715576040517f08c379a000000000000000000000000000000000000000000000000000000000815260040161070c90611610565b60405180910390fd5b61071f8282610c09565b5050565b80600660006101000a81548173ffffffffffffffffffffffffffffffffffffffff021916908373ffffffffffffffffffffffffffffffffffffffff16021790555050565b6060600480546107769061156d565b80601f01602080910402602001604051908101604052809291908181526020018280546107a29061156d565b80156107ef5780601f106107c4576101008083540402835291602001916107ef565b820191906000526020600020905b8154815290600101906020018083116107d257829003601f168201915b5050505050905090565b600080600084815260200190815260200160002060000160008373ffffffffffffffffffffffffffffffffffffffff1673ffffffffffffffffffffffffffffffffffffffff16815260200190815260200160002060009054906101000a900460ff16905092915050565b6000801b81565b6000600560009054906101000a900473ffffffffffffffffffffffffffffffffffffffff1673ffffffffffffffffffffffffffffffffffffffff1663a230c524836040518263ffffffff1660e01b81526004016108c791906110cf565b602060405180830381865afa1580156108e4573d6000803e3d6000fd5b505050506040513d601f19601f82011682018060405250810190610908919061165c565b9050919050565b818160049190610920929190610f26565b505050565b818160029190610936929190610f26565b505050565b6000600560009054906101000a900473ffffffffffffffffffffffffffffffffffffffff16905090565b61096e82610641565b61097f8161097a610a84565b610a8c565b6109898383610c09565b505050565b80600560006101000a81548173ffffffffffffffffffffffffffffffffffffffff021916908373ffffffffffffffffffffffffffffffffffffffff16021790555050565b6000600660009054906101000a900473ffffffffffffffffffffffffffffffffffffffff16905090565b80600160146101000a81548160ff021916908360ff16021790555050565b60007f01ffc9a7000000000000000000000000000000000000000000000000000000007bffffffffffffffffffffffffffffffffffffffffffffffffffffffff1916827bffffffffffffffffffffffffffffffffffffffffffffffffffffffff1916149050919050565b600033905090565b610a9682826107f9565b610b2557610abb8173ffffffffffffffffffffffffffffffffffffffff166014610cea565b610ac98360001c6020610cea565b604051602001610ada92919061175d565b6040516020818303038152906040526040517f08c379a0000000000000000000000000000000000000000000000000000000008152600401610b1c9190611183565b60405180910390fd5b5050565b610b3382826107f9565b610c0557600160008084815260200190815260200160002060000160008373ffffffffffffffffffffffffffffffffffffffff1673ffffffffffffffffffffffffffffffffffffffff16815260200190815260200160002060006101000a81548160ff021916908315150217905550610baa610a84565b73ffffffffffffffffffffffffffffffffffffffff168173ffffffffffffffffffffffffffffffffffffffff16837f2f8788117e7eff1d82e926ec794901d17c78024a50270940304540a733656f0d60405160405180910390a45b5050565b610c1382826107f9565b15610ce657600080600084815260200190815260200160002060000160008373ffffffffffffffffffffffffffffffffffffffff1673ffffffffffffffffffffffffffffffffffffffff16815260200190815260200160002060006101000a81548160ff021916908315150217905550610c8b610a84565b73ffffffffffffffffffffffffffffffffffffffff168173ffffffffffffffffffffffffffffffffffffffff16837ff6391f5c32d9c69d2a47ea670b442974b53935d1edc7fd64eb21e047a839171b60405160405180910390a45b5050565b606060006002836002610cfd91906117d0565b610d07919061182a565b67ffffffffffffffff811115610d2057610d1f611880565b5b6040519080825280601f01601f191660200182016040528015610d525781602001600182028036833780820191505090505b5090507f300000000000000000000000000000000000000000000000000000000000000081600081518110610d8a57610d896118af565b5b60200101907effffffffffffffffffffffffffffffffffffffffffffffffffffffffffffff1916908160001a9053507f780000000000000000000000000000000000000000000000000000000000000081600181518110610dee57610ded6118af565b5b60200101907effffffffffffffffffffffffffffffffffffffffffffffffffffffffffffff1916908160001a90535060006001846002610e2e91906117d0565b610e38919061182a565b90505b6001811115610ed8577f3031323334353637383961626364656600000000000000000000000000000000600f861660108110610e7a57610e796118af565b5b1a60f81b828281518110610e9157610e906118af565b5b60200101907effffffffffffffffffffffffffffffffffffffffffffffffffffffffffffff1916908160001a905350600485901c945080610ed1906118de565b9050610e3b565b5060008414610f1c576040517f08c379a0000000000000000000000000000000000000000000000000000000008152600401610f1390611953565b60405180910390fd5b8091505092915050565b828054610f329061156d565b90600052602060002090601f016020900481019282610f545760008555610f9b565b82601f10610f6d57803560ff1916838001178555610f9b565b82800160010185558215610f9b579182015b82811115610f9a578235825591602001919060010190610f7f565b5b509050610fa89190610fac565b5090565b5b80821115610fc5576000816000905550600101610fad565b5090565b600080fd5b600080fd5b60007fffffffff0000000000000000000000000000000000000000000000000000000082169050919050565b61100881610fd3565b811461101357600080fd5b50565b60008135905061102581610fff565b92915050565b60006020828403121561104157611040610fc9565b5b600061104f84828501611016565b91505092915050565b60008115159050919050565b61106d81611058565b82525050565b60006020820190506110886000830184611064565b92915050565b600073ffffffffffffffffffffffffffffffffffffffff82169050919050565b60006110b98261108e565b9050919050565b6110c9816110ae565b82525050565b60006020820190506110e460008301846110c0565b92915050565b600081519050919050565b600082825260208201905092915050565b60005b83811015611124578082015181840152602081019050611109565b83811115611133576000848401525b50505050565b6000601f19601f8301169050919050565b6000611155826110ea565b61115f81856110f5565b935061116f818560208601611106565b61117881611139565b840191505092915050565b6000602082019050818103600083015261119d818461114a565b905092915050565b600060ff82169050919050565b6111bb816111a5565b81146111c657600080fd5b50565b6000813590506111d8816111b2565b92915050565b600080fd5b600080fd5b600080fd5b60008083601f840112611203576112026111de565b5b8235905067ffffffffffffffff8111156112205761121f6111e3565b5b60208301915083600182028301111561123c5761123b6111e8565b5b9250929050565b61124c816110ae565b811461125757600080fd5b50565b60008135905061126981611243565b92915050565b600080600080600080600080600060c08a8c03121561129157611290610fc9565b5b600061129f8c828d016111c9565b99505060208a013567ffffffffffffffff8111156112c0576112bf610fce565b5b6112cc8c828d016111ed565b985098505060408a013567ffffffffffffffff8111156112ef576112ee610fce565b5b6112fb8c828d016111ed565b965096505060608a013567ffffffffffffffff81111561131e5761131d610fce565b5b61132a8c828d016111ed565b9450945050608061133d8c828d0161125a565b92505060a061134e8c828d0161125a565b9150509295985092959850929598565b6000819050919050565b6113718161135e565b811461137c57600080fd5b50565b60008135905061138e81611368565b92915050565b6000602082840312156113aa576113a9610fc9565b5b60006113b88482850161137f565b91505092915050565b6113ca8161135e565b82525050565b60006020820190506113e560008301846113c1565b92915050565b6000806040838503121561140257611401610fc9565b5b60006114108582860161137f565b92505060206114218582860161125a565b9150509250929050565b611434816111a5565b82525050565b600060208201905061144f600083018461142b565b92915050565b60006020828403121561146b5761146a610fc9565b5b60006114798482850161125a565b91505092915050565b6000806020838503121561149957611498610fc9565b5b600083013567ffffffffffffffff8111156114b7576114b6610fce565b5b6114c3858286016111ed565b92509250509250929050565b6000602082840312156114e5576114e4610fc9565b5b60006114f3848285016111c9565b91505092915050565b60008151905061150b81611243565b92915050565b60006020828403121561152757611526610fc9565b5b6000611535848285016114fc565b91505092915050565b7f4e487b7100000000000000000000000000000000000000000000000000000000600052602260045260246000fd5b6000600282049050600182168061158557607f821691505b6020821081036115985761159761153e565b5b50919050565b7f416363657373436f6e74726f6c3a2063616e206f6e6c792072656e6f756e636560008201527f20726f6c657320666f722073656c660000000000000000000000000000000000602082015250565b60006115fa602f836110f5565b91506116058261159e565b604082019050919050565b60006020820190508181036000830152611629816115ed565b9050919050565b61163981611058565b811461164457600080fd5b50565b60008151905061165681611630565b92915050565b60006020828403121561167257611671610fc9565b5b600061168084828501611647565b91505092915050565b600081905092915050565b7f416363657373436f6e74726f6c3a206163636f756e7420000000000000000000600082015250565b60006116ca601783611689565b91506116d582611694565b601782019050919050565b60006116eb826110ea565b6116f58185611689565b9350611705818560208601611106565b80840191505092915050565b7f206973206d697373696e6720726f6c6520000000000000000000000000000000600082015250565b6000611747601183611689565b915061175282611711565b601182019050919050565b6000611768826116bd565b915061177482856116e0565b915061177f8261173a565b915061178b82846116e0565b91508190509392505050565b6000819050919050565b7f4e487b7100000000000000000000000000000000000000000000000000000000600052601160045260246000fd5b60006117db82611797565b91506117e683611797565b9250817fffffffffffffffffffffffffffffffffffffffffffffffffffffffffffffffff048311821515161561181f5761181e6117a1565b5b828202905092915050565b600061183582611797565b915061184083611797565b9250827fffffffffffffffffffffffffffffffffffffffffffffffffffffffffffffffff03821115611875576118746117a1565b5b828201905092915050565b7f4e487b7100000000000000000000000000000000000000000000000000000000600052604160045260246000fd5b7f4e487b7100000000000000000000000000000000000000000000000000000000600052603260045260246000fd5b60006118e982611797565b9150600082036118fc576118fb6117a1565b5b600182039050919050565b7f537472696e67733a20686578206c656e67746820696e73756666696369656e74600082015250565b600061193d6020836110f5565b915061194882611907565b602082019050919050565b6000602082019050818103600083015261196c81611930565b905091905056fea2646970667358221220a61f4d6fe330796d845248d17a8641d5744cdfb330cb0efb2bf946871cb2b31364736f6c634300080d003360806040523480156200001157600080fd5b50604051620011d7380380620011d78339818101604052810190620000379190620000e9565b80600160006101000a81548173ffffffffffffffffffffffffffffffffffffffff021916908373ffffffffffffffffffffffffffffffffffffffff160217905550506200011b565b600080fd5b600073ffffffffffffffffffffffffffffffffffffffff82169050919050565b6000620000b18262000084565b9050919050565b620000c381620000a4565b8114620000cf57600080fd5b50565b600081519050620000e381620000b8565b92915050565b6000602082840312156200010257620001016200007f565b5b60006200011284828501620000d2565b91505092915050565b6110ac806200012b6000396000f3fe608060405234801561001057600080fd5b50600436106100935760003560e01c806336568abe1161006657806336568abe1461013257806391d148541461014e578063a217fddf1461017e578063a230c5241461019c578063d547741f146101cc57610093565b806301ffc9a71461009857806310fe9ae8146100c8578063248a9ca3146100e65780632f2ff15d14610116575b600080fd5b6100b260048036038101906100ad9190610a01565b6101e8565b6040516100bf9190610a49565b60405180910390f35b6100d0610262565b6040516100dd9190610aa5565b60405180910390f35b61010060048036038101906100fb9190610af6565b61028c565b60405161010d9190610b32565b60405180910390f35b610130600480360381019061012b9190610b79565b6102ab565b005b61014c60048036038101906101479190610b79565b6102d4565b005b61016860048036038101906101639190610b79565b610357565b6040516101759190610a49565b60405180910390f35b6101866103c1565b6040516101939190610b32565b60405180910390f35b6101b660048036038101906101b19190610bb9565b6103c8565b6040516101c39190610a49565b60405180910390f35b6101e660048036038101906101e19190610b79565b61046f565b005b60007f7965db0b000000000000000000000000000000000000000000000000000000007bffffffffffffffffffffffffffffffffffffffffffffffffffffffff1916827bffffffffffffffffffffffffffffffffffffffffffffffffffffffff1916148061025b575061025a82610498565b5b9050919050565b6000600160009054906101000a900473ffffffffffffffffffffffffffffffffffffffff16905090565b6000806000838152602001908152602001600020600101549050919050565b6102b48261028c565b6102c5816102c0610502565b61050a565b6102cf83836105a7565b505050565b6102dc610502565b73ffffffffffffffffffffffffffffffffffffffff168173ffffffffffffffffffffffffffffffffffffffff1614610349576040517f08c379a000000000000000000000000000000000000000000000000000000000815260040161034090610c69565b60405180910390fd5b6103538282610687565b5050565b600080600084815260200190815260200160002060000160008373ffffffffffffffffffffffffffffffffffffffff1673ffffffffffffffffffffffffffffffffffffffff16815260200190815260200160002060009054906101000a900460ff16905092915050565b6000801b81565b600080600160009054906101000a900473ffffffffffffffffffffffffffffffffffffffff1673ffffffffffffffffffffffffffffffffffffffff166370a08231846040518263ffffffff1660e01b81526004016104269190610aa5565b602060405180830381865afa158015610443573d6000803e3d6000fd5b505050506040513d601f19601f820116820180604052508101906104679190610cbf565b119050919050565b6104788261028c565b61048981610484610502565b61050a565b6104938383610687565b505050565b60007f01ffc9a7000000000000000000000000000000000000000000000000000000007bffffffffffffffffffffffffffffffffffffffffffffffffffffffff1916827bffffffffffffffffffffffffffffffffffffffffffffffffffffffff1916149050919050565b600033905090565b6105148282610357565b6105a3576105398173ffffffffffffffffffffffffffffffffffffffff166014610768565b6105478360001c6020610768565b604051602001610558929190610dfe565b6040516020818303038152906040526040517f08c379a000000000000000000000000000000000000000000000000000000000815260040161059a9190610e82565b60405180910390fd5b5050565b6105b18282610357565b61068357600160008084815260200190815260200160002060000160008373ffffffffffffffffffffffffffffffffffffffff1673ffffffffffffffffffffffffffffffffffffffff16815260200190815260200160002060006101000a81548160ff021916908315150217905550610628610502565b73ffffffffffffffffffffffffffffffffffffffff168173ffffffffffffffffffffffffffffffffffffffff16837f2f8788117e7eff1d82e926ec794901d17c78024a50270940304540a733656f0d60405160405180910390a45b5050565b6106918282610357565b1561076457600080600084815260200190815260200160002060000160008373ffffffffffffffffffffffffffffffffffffffff1673ffffffffffffffffffffffffffffffffffffffff16815260200190815260200160002060006101000a81548160ff021916908315150217905550610709610502565b73ffffffffffffffffffffffffffffffffffffffff168173ffffffffffffffffffffffffffffffffffffffff16837ff6391f5c32d9c69d2a47ea670b442974b53935d1edc7fd64eb21e047a839171b60405160405180910390a45b5050565b60606000600283600261077b9190610ed3565b6107859190610f2d565b67ffffffffffffffff81111561079e5761079d610f83565b5b6040519080825280601f01601f1916602001820160405280156107d05781602001600182028036833780820191505090505b5090507f30000000000000000000000000000000000000000000000000000000000000008160008151811061080857610807610fb2565b5b60200101907effffffffffffffffffffffffffffffffffffffffffffffffffffffffffffff1916908160001a9053507f78000000000000000000000000000000000000000000000000000000000000008160018151811061086c5761086b610fb2565b5b60200101907effffffffffffffffffffffffffffffffffffffffffffffffffffffffffffff1916908160001a905350600060018460026108ac9190610ed3565b6108b69190610f2d565b90505b6001811115610956577f3031323334353637383961626364656600000000000000000000000000000000600f8616601081106108f8576108f7610fb2565b5b1a60f81b82828151811061090f5761090e610fb2565b5b60200101907effffffffffffffffffffffffffffffffffffffffffffffffffffffffffffff1916908160001a905350600485901c94508061094f90610fe1565b90506108b9565b506000841461099a576040517f08c379a000000000000000000000000000000000000000000000000000000000815260040161099190611056565b60405180910390fd5b8091505092915050565b600080fd5b60007fffffffff0000000000000000000000000000000000000000000000000000000082169050919050565b6109de816109a9565b81146109e957600080fd5b50565b6000813590506109fb816109d5565b92915050565b600060208284031215610a1757610a166109a4565b5b6000610a25848285016109ec565b91505092915050565b60008115159050919050565b610a4381610a2e565b82525050565b6000602082019050610a5e6000830184610a3a565b92915050565b600073ffffffffffffffffffffffffffffffffffffffff82169050919050565b6000610a8f82610a64565b9050919050565b610a9f81610a84565b82525050565b6000602082019050610aba6000830184610a96565b92915050565b6000819050919050565b610ad381610ac0565b8114610ade57600080fd5b50565b600081359050610af081610aca565b92915050565b600060208284031215610b0c57610b0b6109a4565b5b6000610b1a84828501610ae1565b91505092915050565b610b2c81610ac0565b82525050565b6000602082019050610b476000830184610b23565b92915050565b610b5681610a84565b8114610b6157600080fd5b50565b600081359050610b7381610b4d565b92915050565b60008060408385031215610b9057610b8f6109a4565b5b6000610b9e85828601610ae1565b9250506020610baf85828601610b64565b9150509250929050565b600060208284031215610bcf57610bce6109a4565b5b6000610bdd84828501610b64565b91505092915050565b600082825260208201905092915050565b7f416363657373436f6e74726f6c3a2063616e206f6e6c792072656e6f756e636560008201527f20726f6c657320666f722073656c660000000000000000000000000000000000602082015250565b6000610c53602f83610be6565b9150610c5e82610bf7565b604082019050919050565b60006020820190508181036000830152610c8281610c46565b9050919050565b6000819050919050565b610c9c81610c89565b8114610ca757600080fd5b50565b600081519050610cb981610c93565b92915050565b600060208284031215610cd557610cd46109a4565b5b6000610ce384828501610caa565b91505092915050565b600081905092915050565b7f416363657373436f6e74726f6c3a206163636f756e7420000000000000000000600082015250565b6000610d2d601783610cec565b9150610d3882610cf7565b601782019050919050565b600081519050919050565b60005b83811015610d6c578082015181840152602081019050610d51565b83811115610d7b576000848401525b50505050565b6000610d8c82610d43565b610d968185610cec565b9350610da6818560208601610d4e565b80840191505092915050565b7f206973206d697373696e6720726f6c6520000000000000000000000000000000600082015250565b6000610de8601183610cec565b9150610df382610db2565b601182019050919050565b6000610e0982610d20565b9150610e158285610d81565b9150610e2082610ddb565b9150610e2c8284610d81565b91508190509392505050565b6000601f19601f8301169050919050565b6000610e5482610d43565b610e5e8185610be6565b9350610e6e818560208601610d4e565b610e7781610e38565b840191505092915050565b60006020820190508181036000830152610e9c8184610e49565b905092915050565b7f4e487b7100000000000000000000000000000000000000000000000000000000600052601160045260246000fd5b6000610ede82610c89565b9150610ee983610c89565b9250817fffffffffffffffffffffffffffffffffffffffffffffffffffffffffffffffff0483118215151615610f2257610f21610ea4565b5b828202905092915050565b6000610f3882610c89565b9150610f4383610c89565b9250827fffffffffffffffffffffffffffffffffffffffffffffffffffffffffffffffff03821115610f7857610f77610ea4565b5b828201905092915050565b7f4e487b7100000000000000000000000000000000000000000000000000000000600052604160045260246000fd5b7f4e487b7100000000000000000000000000000000000000000000000000000000600052603260045260246000fd5b6000610fec82610c89565b915060008203610fff57610ffe610ea4565b5b600182039050919050565b7f537472696e67733a20686578206c656e67746820696e73756666696369656e74600082015250565b6000611040602083610be6565b915061104b8261100a565b602082019050919050565b6000602082019050818103600083015261106f81611033565b905091905056fea2646970667358221220ca566ad0a6dc425d642403f492764969d1f83715b3647c0effd404f1359bf4a164736f6c634300080d003360806040523480156200001157600080fd5b50604051620011d7380380620011d78339818101604052810190620000379190620000e9565b80600160006101000a81548173ffffffffffffffffffffffffffffffffffffffff021916908373ffffffffffffffffffffffffffffffffffffffff160217905550506200011b565b600080fd5b600073ffffffffffffffffffffffffffffffffffffffff82169050919050565b6000620000b18262000084565b9050919050565b620000c381620000a4565b8114620000cf57600080fd5b50565b600081519050620000e381620000b8565b92915050565b6000602082840312156200010257620001016200007f565b5b60006200011284828501620000d2565b91505092915050565b6110ac806200012b6000396000f3fe608060405234801561001057600080fd5b50600436106100935760003560e01c806336568abe1161006657806336568abe1461013257806391d148541461014e578063a217fddf1461017e578063a230c5241461019c578063d547741f146101cc57610093565b806301ffc9a71461009857806310fe9ae8146100c8578063248a9ca3146100e65780632f2ff15d14610116575b600080fd5b6100b260048036038101906100ad9190610a01565b6101e8565b6040516100bf9190610a49565b60405180910390f35b6100d0610262565b6040516100dd9190610aa5565b60405180910390f35b61010060048036038101906100fb9190610af6565b61028c565b60405161010d9190610b32565b60405180910390f35b610130600480360381019061012b9190610b79565b6102ab565b005b61014c60048036038101906101479190610b79565b6102d4565b005b61016860048036038101906101639190610b79565b610357565b6040516101759190610a49565b60405180910390f35b6101866103c1565b6040516101939190610b32565b60405180910390f35b6101b660048036038101906101b19190610bb9565b6103c8565b6040516101c39190610a49565b60405180910390f35b6101e660048036038101906101e19190610b79565b61046f565b005b60007f7965db0b000000000000000000000000000000000000000000000000000000007bffffffffffffffffffffffffffffffffffffffffffffffffffffffff1916827bffffffffffffffffffffffffffffffffffffffffffffffffffffffff1916148061025b575061025a82610498565b5b9050919050565b6000600160009054906101000a900473ffffffffffffffffffffffffffffffffffffffff16905090565b6000806000838152602001908152602001600020600101549050919050565b6102b48261028c565b6102c5816102c0610502565b61050a565b6102cf83836105a7565b505050565b6102dc610502565b73ffffffffffffffffffffffffffffffffffffffff168173ffffffffffffffffffffffffffffffffffffffff1614610349576040517f08c379a000000000000000000000000000000000000000000000000000000000815260040161034090610c69565b60405180910390fd5b6103538282610687565b5050565b600080600084815260200190815260200160002060000160008373ffffffffffffffffffffffffffffffffffffffff1673ffffffffffffffffffffffffffffffffffffffff16815260200190815260200160002060009054906101000a900460ff16905092915050565b6000801b81565b600080600160009054906101000a900473ffffffffffffffffffffffffffffffffffffffff1673ffffffffffffffffffffffffffffffffffffffff166370a08231846040518263ffffffff1660e01b81526004016104269190610aa5565b602060405180830381865afa158015610443573d6000803e3d6000fd5b505050506040513d601f19601f820116820180604052508101906104679190610cbf565b119050919050565b6104788261028c565b61048981610484610502565b61050a565b6104938383610687565b505050565b60007f01ffc9a7000000000000000000000000000000000000000000000000000000007bffffffffffffffffffffffffffffffffffffffffffffffffffffffff1916827bffffffffffffffffffffffffffffffffffffffffffffffffffffffff1916149050919050565b600033905090565b6105148282610357565b6105a3576105398173ffffffffffffffffffffffffffffffffffffffff166014610768565b6105478360001c6020610768565b604051602001610558929190610dfe565b6040516020818303038152906040526040517f08c379a000000000000000000000000000000000000000000000000000000000815260040161059a9190610e82565b60405180910390fd5b5050565b6105b18282610357565b61068357600160008084815260200190815260200160002060000160008373ffffffffffffffffffffffffffffffffffffffff1673ffffffffffffffffffffffffffffffffffffffff16815260200190815260200160002060006101000a81548160ff021916908315150217905550610628610502565b73ffffffffffffffffffffffffffffffffffffffff168173ffffffffffffffffffffffffffffffffffffffff16837f2f8788117e7eff1d82e926ec794901d17c78024a50270940304540a733656f0d60405160405180910390a45b5050565b6106918282610357565b1561076457600080600084815260200190815260200160002060000160008373ffffffffffffffffffffffffffffffffffffffff1673ffffffffffffffffffffffffffffffffffffffff16815260200190815260200160002060006101000a81548160ff021916908315150217905550610709610502565b73ffffffffffffffffffffffffffffffffffffffff168173ffffffffffffffffffffffffffffffffffffffff16837ff6391f5c32d9c69d2a47ea670b442974b53935d1edc7fd64eb21e047a839171b60405160405180910390a45b5050565b60606000600283600261077b9190610ed3565b6107859190610f2d565b67ffffffffffffffff81111561079e5761079d610f83565b5b6040519080825280601f01601f1916602001820160405280156107d05781602001600182028036833780820191505090505b5090507f30000000000000000000000000000000000000000000000000000000000000008160008151811061080857610807610fb2565b5b60200101907effffffffffffffffffffffffffffffffffffffffffffffffffffffffffffff1916908160001a9053507f78000000000000000000000000000000000000000000000000000000000000008160018151811061086c5761086b610fb2565b5b60200101907effffffffffffffffffffffffffffffffffffffffffffffffffffffffffffff1916908160001a905350600060018460026108ac9190610ed3565b6108b69190610f2d565b90505b6001811115610956577f3031323334353637383961626364656600000000000000000000000000000000600f8616601081106108f8576108f7610fb2565b5b1a60f81b82828151811061090f5761090e610fb2565b5b60200101907effffffffffffffffffffffffffffffffffffffffffffffffffffffffffffff1916908160001a905350600485901c94508061094f90610fe1565b90506108b9565b506000841461099a576040517f08c379a000000000000000000000000000000000000000000000000000000000815260040161099190611056565b60405180910390fd5b8091505092915050565b600080fd5b60007fffffffff0000000000000000000000000000000000000000000000000000000082169050919050565b6109de816109a9565b81146109e957600080fd5b50565b6000813590506109fb816109d5565b92915050565b600060208284031215610a1757610a166109a4565b5b6000610a25848285016109ec565b91505092915050565b60008115159050919050565b610a4381610a2e565b82525050565b6000602082019050610a5e6000830184610a3a565b92915050565b600073ffffffffffffffffffffffffffffffffffffffff82169050919050565b6000610a8f82610a64565b9050919050565b610a9f81610a84565b82525050565b6000602082019050610aba6000830184610a96565b92915050565b6000819050919050565b610ad381610ac0565b8114610ade57600080fd5b50565b600081359050610af081610aca565b92915050565b600060208284031215610b0c57610b0b6109a4565b5b6000610b1a84828501610ae1565b91505092915050565b610b2c81610ac0565b82525050565b6000602082019050610b476000830184610b23565b92915050565b610b5681610a84565b8114610b6157600080fd5b50565b600081359050610b7381610b4d565b92915050565b60008060408385031215610b9057610b8f6109a4565b5b6000610b9e85828601610ae1565b9250506020610baf85828601610b64565b9150509250929050565b600060208284031215610bcf57610bce6109a4565b5b6000610bdd84828501610b64565b91505092915050565b600082825260208201905092915050565b7f416363657373436f6e74726f6c3a2063616e206f6e6c792072656e6f756e636560008201527f20726f6c657320666f722073656c660000000000000000000000000000000000602082015250565b6000610c53602f83610be6565b9150610c5e82610bf7565b604082019050919050565b60006020820190508181036000830152610c8281610c46565b9050919050565b6000819050919050565b610c9c81610c89565b8114610ca757600080fd5b50565b600081519050610cb981610c93565b92915050565b600060208284031215610cd557610cd46109a4565b5b6000610ce384828501610caa565b91505092915050565b600081905092915050565b7f416363657373436f6e74726f6c3a206163636f756e7420000000000000000000600082015250565b6000610d2d601783610cec565b9150610d3882610cf7565b601782019050919050565b600081519050919050565b60005b83811015610d6c578082015181840152602081019050610d51565b83811115610d7b576000848401525b50505050565b6000610d8c82610d43565b610d968185610cec565b9350610da6818560208601610d4e565b80840191505092915050565b7f206973206d697373696e6720726f6c6520000000000000000000000000000000600082015250565b6000610de8601183610cec565b9150610df382610db2565b601182019050919050565b6000610e0982610d20565b9150610e158285610d81565b9150610e2082610ddb565b9150610e2c8284610d81565b91508190509392505050565b6000601f19601f8301169050919050565b6000610e5482610d43565b610e5e8185610be6565b9350610e6e818560208601610d4e565b610e7781610e38565b840191505092915050565b60006020820190508181036000830152610e9c8184610e49565b905092915050565b7f4e487b7100000000000000000000000000000000000000000000000000000000600052601160045260246000fd5b6000610ede82610c89565b9150610ee983610c89565b9250817fffffffffffffffffffffffffffffffffffffffffffffffffffffffffffffffff0483118215151615610f2257610f21610ea4565b5b828202905092915050565b6000610f3882610c89565b9150610f4383610c89565b9250827fffffffffffffffffffffffffffffffffffffffffffffffffffffffffffffffff03821115610f7857610f77610ea4565b5b828201905092915050565b7f4e487b7100000000000000000000000000000000000000000000000000000000600052604160045260246000fd5b7f4e487b7100000000000000000000000000000000000000000000000000000000600052603260045260246000fd5b6000610fec82610c89565b915060008203610fff57610ffe610ea4565b5b600182039050919050565b7f537472696e67733a20686578206c656e67746820696e73756666696369656e74600082015250565b6000611040602083610be6565b915061104b8261100a565b602082019050919050565b6000602082019050818103600083015261106f81611033565b905091905056fea26469706673582212205abdf83ba55a4e97ae3c8e923a5122dd335af7efabffae3e7fccb08db118813864736f6c634300080d0033a26469706673582212202b494f35e90d1fb8283c337947c6dee86dec0235f2aab0df921e0020089cc49964736f6c634300080d0033",
  "linkReferences": {},
  "deployedLinkReferences": {}
}